:020000040800F2
:10400000F81A002021420008294200082B4200082B
:104010002D4200082F420008314200080000000035
:104020000000000000000000000000003342000813
:1040300035420008000000003742000811880008DF
:104040003B4200083B4200083B4200083B4200085C
:104050003B4200083B420008AB790008C3790008E6
:104060003B4200083B4200083B4200083B4200083C
:104070003B4200083B4200083B4200083B4200082C
:104080003B4200083B4200083B4200083B4200081C
:104090003B4200083B4200083B420008DB79000835
:1040A0003B4200083B4200083B4200083B420008FC
:1040B0003B4200083B4200083B4200083B420008EC
:1040C0003B4200083B4200083B4200083B420008DC
:1040D0003B420008218A0008698A0008B18A00086A
:1040E0003B420008897900083B4200083B42000837
:1040F0003B4200083B4200083B4200083B420008AC
:104100003B4200083B420008FD8800083B42000893
:10411000D98900083B4200083B4200083B420008A6
:104120003B4200083B4200083B4200083B4200087B
:104130003B4200083B4200083B4200083B4200086B
:104140003B4200083B4200083B4200083B4200085B
:104150003B4200083B420008000000003B420008D0
:104160003B4200083B420008000000000000000045
:104170003B4200083B4200083B42000800000000B0
:10418000000000003B4200083B4200083B420008A0
:104190003B4200080000000000000000000000009A
:1041A0000000000000000000000000003B4200088A
:1041B0003B420008000000003B42000800000000F5
:1041C00000000000000000000000000000000000EF
:1041D00000000000000000003B4200083B420008D5
:1041E0003B4200083B4200083B4200083B420008BB
:1041F0003B4200083B4200083B4200083B420008AB
:104200003B4200083B4200083B420008DFF80CD06C
:1042100000F0C2FD00480047A3AF0008F81A0020D4
:104220000648804706480047FEE7FEE7FEE7FEE750
:10423000FEE7FEE7FEE7FEE7FEE7FEE791880008FF
:104240000D4200082DE9F05F0546002092469B468E
:1042500088460646814640241BE02846414647469C
:10426000224600F0A2FB53465A46C01A914110D391
:1042700011461846224600F089FB2D1A67EB01080B
:104280004F4622460120002100F080FB17EB000979
:104290004E41201EA4F10104DFDC484631462A4687
:1042A0004346BDE8F09F000038B5D0E90221491E21
:1042B00001EB410102EBC1014268C1EB011102EBCC
:1042C00081010268C1EB011102EB8102D0E90431E6
:1042D00001EB410103EB81013023A1F5527191FB08
:1042E000F3F4174D6C4302EBC41291FBF3F403FBA0
:1042F000141100921A2902DB124B1A4400920C226C
:1043000091FBF2F3104C6343009C04EBC313009346
:1043100091FBF2F302FB13110C4A08E0491E40F234
:10432000A324535C6343009C04EBC3130093002954
:10433000F4DC0146684600F05BFB009838BD0000E5
:104340003F0C0F008051010067C20300B0B90008A4
:1043500040EA01039B0703D009E008C9121F08C007
:10436000042AFAD203E011F8013B00F8013B521E87
:10437000F9D27047D2B201E000F8012B491EFBD2FE
:1043800070470022F6E710B513460A460446194660
:10439000FFF7F0FF204610BD421C10F8011B00295A
:1043A000FBD1801A704730B504460020034600E078
:1043B0005B1C934203D2E05CCD5C401BF8D030BD67
:1043C0000FB400B58DB010A909900B9000914FF07B
:1043D000FF300A9000200C90054806900548079091
:1043E0006A4609A80F9900F05DFB0DB05DF814FB5B
:1043F000C14A0008DF4A00082DE9FF5F1D464FF063
:10440000FF3BD5E9014691465F464FF00008A96998
:104410007F1C01988847296A824688470028F6D180
:10442000BAF1FF3F0CD024F4C064002E19DD600601
:1044300014D5BAF12B0F09D0BAF12D0F0ED103E02C
:10444000584604B0BDE8F09F44F48064A9697F1C1D
:1044500001988847761E8246002E02DDBAF1300FA1
:1044600003D0B9F1000F26D032E0A969761E44F4DA
:1044700000747F1C019888478246002E05DDBAF142
:10448000780F06D0BAF1580F03D0B9F1000F10D051
:104490001EE0B9F1000F02D0B9F1100F18D1A969CF
:1044A000761E24F400747F1C0198884782461020F1
:1044B00002E0082000E00A20814609E008FB090824
:1044C000A969761E44F400747F1C019888478246CF
:1044D000002E05DD4946504600F0D0FA0028EDDAFE
:1044E000E96901988847A00502D46FF00100A8E7A8
:1044F000E00725D1600613D5600502D5C8F100009C
:1045000000E0404629680A1D2A600968220501D595
:10451000087015E0220701D5088011E008600FE05F
:104520002868011D29600068210502D580F80080F7
:1045300006E0210702D5A0F8008001E0C0F8008065
:1045400038467EE72DE9FE4F804681EA0300C00F22
:104550000C46009021F0004123F00045B8EB02002A
:10456000A94105D24046214690461C460B460246CC
:1045700023F00040104347D0270DC7F30A00C3F3D0
:104580000A510290401A019040286BDAC3F31300DD
:1045900040F4801B0098924620B10023D2EB030A1E
:1045A00063EB0B0B01985946C0F14002504600F0F6
:1045B000EDF906460D4650465946019A00F005FAB7
:1045C00010EB08006141002487EA115284EAE77386
:1045D0001A4340D0009A62B3019A012A4FEA075267
:1045E00015DC001B61EB02014FF0004202EA0752AA
:1045F000CDE90042001C41F5801132462B4600F007
:1046000013FB03B0BDE8F08F40462146F9E7001BDD
:1046100061EB0201001C41F5801300185B4120187A
:10462000A2F5001747EB030140EAD570B6196D41BA
:1046300011E06D084FEA360645EAC0754FEA0752A9
:10464000001B61EB0201001C41F5801149084FEA93
:1046500030000019514132462B4603B0BDE8F04FFF
:1046600000F0D3BA0098012240000023D0EB0202F0
:1046700063EBE073009821464FEAE074B8EB00006A
:1046800061EB0401E9E783F000435BE781F000415F
:1046900058E72DE9FE4F81EA030404F0004421F0BD
:1046A000004100944FF0000B23F0004350EA010456
:1046B0005ED052EA03045BD0C3F30A54C1F30A5537
:1046C0002C44A4F2F3340194A0FB0254C1F313016F
:1046D00041F48011C3F3130343F4801301FB02443C
:1046E00000FB034E840A970A44EA815447EA835741
:1046F000A4FB076802958D0A05FB07854FEA932CFA
:1047000004FB0C542705029D4FEA065847EA16376A
:10471000B5EB08056EEB070C870E920E47EA811782
:1047200042EA8312A7FB0201B6EB0B0164EB000423
:104730002B0D43EA0C335E1844EB1C50DA4651460D
:10474000E7FB0201C5F313044FEA0B3343EA1453AA
:104750004FEA0432019C43EA0603A4F10C040294DC
:10476000009CCDE900B400F05FFA03B0BDE8F08F23
:1047700000200146F9E72DE9F04D81EA030404F039
:10478000004B21F0004514464FF0000A23F0004191
:1047900050EA050220D054EA01021DD0C5F30A57A1
:1047A0000246C5F31303C1F31300C1F30A5640F4E4
:1047B000801543F48013A7EB0608101BD64608F2B9
:1047C000FD3873EB050002D308F1010801E09218EF
:1047D0005B41B8F1000F03DA00200146BDE8F08D1F
:1047E00000204FF48011064684460EE0171B73EB41
:1047F000050705D3121B63EB050306434CEA010CC6
:1048000049084FEA300092185B4150EA0107EDD1A8
:1048100052EA030012D082EA040083EA0501084349
:1048200005D0101BAB4106D20122002306E0002276
:104830004FF0004302E06FF0010253101AEB060044
:104840004CEB085110EB0A0041EB0B01BDE8F04DB9
:1048500000F0DBB90EB540F2334102910021CDE901
:1048600000110A460B4600F0DFF903B000BDC1F3AA
:104870000A5210B5C1F3130140F2FF3341F4801125
:104880009A4201DA002010BD40F233439A42A2F26C
:10489000334203DC524200F088F810BD904010BD56
:1048A00000F0004230F000400AD0C10D01F5607107
:1048B000C0F3160042EA0151C20840071143704795
:1048C000002001467047000030B5041E71F100045D
:1048D00004DB4FF00044404264EB0101141E73F10D
:1048E000000405DB1C464FF00043524263EB040317
:1048F0008B4208BF824230BD30B5041E71F1000406
:1049000004DB4FF00044404264EB0101141E73F1DC
:10491000000405DB1C464FF00043524263EB0403E6
:10492000994208BF904230BD01F0004330B421F0FD
:10493000004150EA010206D00A0DA2F56072C1F3EF
:104940001301002A02DC30BC00207047440F44EA07
:10495000C104C100E01830BC00EBC25000F01EB929
:1049600030B50B46014600202022012409E021FA3F
:1049700002F59D4205D303FA02F5491B04FA02F53C
:104980002844151EA2F10102F1DC30BD202A04DB0F
:10499000203A00FA02F1002070479140C2F1200352
:1049A00020FA03F3194390407047202A04DB203A91
:1049B00021FA02F00021704721FA02F3D040C2F13F
:1049C00020029140084319467047202A06DBCB1786
:1049D000203A41FA02F043EAE07306E041FA02F3BA
:1049E000D040C2F1200291400843194670470000B0
:1049F00010B500683C22B0FBF2F302FB1303B0FBDE
:104A0000F2F00B60B0FBF2F302FB1303B0FBF2F029
:104A100018224B60B0FBF2F302FB1303B0FBF2F081
:104A2000021D8B600723B2FBF3F403FB142280000A
:104A300040F2B55300F66C308A61B0FBF3F2B0FB84
:104A4000F3F403FB1400443280084A61C8613B2838
:104A500002D3920700D0401C0022074C13460A6183
:104A6000E25C824203D8801A5B1C0B61F8E7401CB1
:104A7000C860084610BD0000E0BA00083A2800D21D
:104A8000303820F02002412A01D3A2F137008842B9
:104A900001D34FF0FF307047026811441378016072
:104AA00018467047D16004495161044911620021E0
:104AB0001161114600F088B9994A0008BD4D0008FF
:104AC000426842B1016811F8013B23B1521EC0E9AE
:104AD0000012184670470121C160881E7047426865
:104AE0005AB1C368016843B983688B4205D0491E37
:104AF000521CC0E90012002070474FF0FF30704791
:104B00000FB4002300B589B00CA900910B996FF088
:104B10000042CB601E4B06931E4B07930423CDE946
:104B200001321D4A089202466B46002000F076FBD7
:104B300009B05DF814FB70B586B006464FF0FF3043
:104B40000091CDE90101002015460C460490324643
:104B5000694604A8FFF7D4FF02460498211825B13E
:104B600008B1084600E020462860049800280DD0CF
:104B7000002A02DD0098884208D0081B0094CDE985
:104B800001043246694604A8FFF7BAFF06B070BDBB
:104B9000C14A0008DF4A0008BD4D00080029A8BF2F
:104BA0007047401C490008BF20F00100704710B456
:104BB000B0FA80FC00FA0CF050EA010404BF10BC0B
:104BC000704749B1CCF1200421FA04F411FA0CF138
:104BD00018BF012121430843A3EB0C01CB1D4FEA71
:104BE00000614FEA102042BF002010BC704700EB6C
:104BF000C35010440029A4BF10BC7047401C49009A
:104C000008BF20F0010010BC704710B5141E73F1EE
:104C1000000408DA401C41F1000192185B411A437C
:104C200001D120F0010010BD2DE9F04D92469B46C8
:104C300011B1B1FA81F202E0B0FA80F2203290466E
:104C4000FFF7A4FE04460F4640EA0A0041EA0B01C2
:104C500053465A46084313D0114653EA010019D06F
:104C6000C8F140025046FFF7A0FE05460E465046EA
:104C700059464246FFF78AFE084305D0012004E06A
:104C800020463946BDE8F08D0020054346EAE0762F
:104C90002C4337430A986305E40AA0EB080000227E
:104CA000FD0A44EA47540A3002D500200146E9E7EC
:104CB000010510196941DDE9084500196941BDE8A0
:104CC000F04DA2E72DE9F04D00231A461B1A8A4148
:104CD00003DB00200146BDE8F08DC1F30A52C1F3A9
:104CE000130141F480154FF0000BD10702D10018D9
:104CF0006D41521E0027044640F2FF11384601EB79
:104D0000620A3E468046024600204FF48011FFF7BB
:104D10004CFEC2197141BB1846EB0100B4EB030C09
:104D200075EB000C04D3E41A65EB000517460E463C
:104D3000241908F101006D4180463428E3DDF9199A
:104D400046EB0600091BA84103D24FF0FF32134681
:104D500001E0002213461BEB070046EB0A51BDE8B9
:104D6000F04DFFF752BFC1F30A52C1F3130140F2F5
:104D7000FF3341F480119A4202DA00200146704765
:104D800040F233439A42A2F2334202DC5242FFF72E
:104D90000CBEFFF7FBBD0000064C074D06E0E068C7
:104DA00040F0010394E8070098471034AC42F6D372
:104DB000FFF730FA8CBE0008ACBE0008C0B24FF45A
:104DC000F05100F077BB00002DE9F34F8BB04FF0AE
:104DD000000801F10C000C464FF0010B46460DF1A6
:104DE000080A01906269012101989047051E2DD0A3
:104DF000252D2CD0216A8847C0B162690121019814
:104E00009047216A88470028F7D1411E62690198BE
:104E1000904700E0761CA1690B988847216A884773
:104E20000028F7D1E1690B988847DBE7A1690B9867
:104E300088470746A84201D1761CD3E7E1690B9861
:104E400088477F1C02D1B8F1000F6FD046E10027E0
:104E500062693D463946019890472A2804D1626923
:104E60000121019890470125DFF8849262690121B0
:104E700001989047A0F130010A290AD24F45E5DC9C
:104E800007EB870100EB4107303FDFD445F0100509
:104E9000ECE7E90601D46FF000476C280AD04C28F3
:104EA00014D0682815D06A280DD074281CD07A2810
:104EB0001AD01DE062690121019890476C2802D048
:104EC00045F0040514E045F002050DE045F020052D
:104ED0000AE06269012101989047682802D045F0F4
:104EE000080505E045F400656269012101989047D5
:104EF000C4E9015765283DD019DC58287AD00CDC6C
:104F0000452837D004DC252826D0412831D131E08E
:104F100046282FD047282CD12CE05B2877D0612859
:104F200028D063287CD0642823D15AE0D0E06F28B1
:104F300048D008DC66281DD067281BD0692821D0FE
:104F40006E2816D127E0702845D0732868D07528C0
:104F500047D078280DD14DE0A1690B9888470546C8
:104F600025283FF469AFE1690B9888476D1C3FF431
:104F70006AAFB3E023466A466FF001000B9900F078
:104F80004DF99EE045F040006060A80723464FF0D1
:104F9000000236D43EE0E8077FF447AF2068011DE9
:104FA00021600068290501D506701BE7290701D596
:104FB000068017E7A90703D5F117C0E9006111E7DB
:104FC00006600FE745F040006060A80723464FF0F9
:104FD000080216D41EE040F60E0125EA01006060CA
:104FE00016E045F040006060A80723464FF00A0233
:104FF00007D40FE045F040006060A80708D52346BD
:1050000010226FF001000B99AFF3008059E007E028
:10501000234610226FF001000B99FFF7EDF950E0E5
:105020004FF000094F464B46632802D05B2806D05C
:1050300040E0E80601D40120A06001273AE062695F
:105040000121019890475E2805D14FF0010962695E
:10505000494601989047216939B900210A465346CB
:1050600043F82120491C0829FADBB0B3216969B94A
:10507000C11700EBD16253110AEB830122F01F022A
:10508000821A01200B68904003430B606269012182
:10509000019890475D28E8D1B9F1000F09D00020B0
:1050A000514651F82020D24341F82020401C0828C6
:1050B000F7DB02AB224600976FF001000B99AFF3CC
:1050C000008000280CDA401C08D1BBF1000F05D08D
:1050D0004FF0FF300DB0BDE8F08FFFE74046F9E735
:1050E000E90701D108F1010806444FF0000B79E609
:1050F000CCCCCC0C2DE9FF4F087883B09946FF2823
:1051000005D0491C2D2804D00024002008E00020F0
:105110000BE00124F9E700EB800003EB4000491CA1
:105120000B78FF2BF7D104B140420023029314788F
:1051300019461D462D2C01D02B2C04D1521C2D2C90
:1051400013D000240294AA461478FF2C0FD00A250D
:10515000A3FB057801FB05814FF0000C03FB0C114C
:10516000521CE3194AEB0101EEE70124EAE781440E
:1051700053EA010002D019F5C87F06DA039800212E
:10518000C0E9001107B0BDE8F08F0025AE4E2F46F4
:10519000DFF8B882184600F0A1F9CDE90001B9F1B5
:1051A000000002DAC9F1000400E004460023A74A27
:1051B0001AEB030B42EB045A12E0E00707D02A4631
:1051C000334638464146FFF764FA074688462A4682
:1051D000334610461946FFF75CFA05460E46641042
:1051E000002CEAD1DDE90001B9F1000F5A4653461F
:1051F00006DAFFF7C0FA3A464346FFF7BCFA05E085
:10520000FFF747FA3A464346FFF743FA029A0AB1D4
:1052100081F00041039AC2E90001B3E72DE9FF4F95
:105220001F468DB0D7E901464FF0FF382E20454686
:105230004FF000090B90B9696D1C0E988847396AC8
:10524000824688470028F6D1BAF1FF3F0AD024F4FD
:10525000D064002E11DDBAF12B0F08D0BAF12D0F5A
:105260000BD102E0404611B08DE744F48064B96987
:105270006D1C0E9888478246761E6946600501D5EA
:105280002D2000E02B208DF8000001F1010B0DF125
:10529000200809E0B9696D1C0E98884782460F986E
:1052A00044F40074761E0560002E02DDBAF1300F62
:1052B000F0D00B998A453ED144F0800406E00F9966
:1052C000681CA9F1010944F400740860B9696D1CF7
:1052D000761E0E98884782463028F0D02BE00B9936
:1052E0008A4505D1200603D444F08004761E18E0D8
:1052F000504604F09FFB08B30DF11301761E44F4F1
:1053000000748B4508D2AAF130000BF8010B20067F
:1053100007D5A9F1010003E0200602D409F101003C
:105320008146A00502D50F99681C0860B9696D1CFB
:105330000E9888478246002ED1DC53E0002E51DDC6
:10534000BAF1650F02D0BAF1450F4BD1A00549D58E
:10535000B9696D1C24F44074761E0E988847824605
:10536000002E0CDD2B2804D0BAF12D0F07D144F408
:105370008074B9696D1C0E9888478246761EE005D8
:1053800001D52D2100E02B2108F8011BCDF82C8040
:1053900021E00DF12901761E44F4007488450CD2F9
:1053A000AAF1300010F0FF0088F8000002D10B993C
:1053B000884509D908F1010806E0E00501D524482F
:1053C00001E042F20F708146B9696D1C0E98884762
:1053D00082460F980560002E04DD504604F02AFB3B
:1053E0000028D6D1F9690E988847FF208BF8000075
:1053F00088F800000020069007904B466A4608A9EE
:1054000006A8FFF777FEA00502D46FF001002AE797
:1054100014F0240F0AD0E00714D1DDE90612386831
:10542000031D3B600068C0E900120BE0DDE90601E6
:10543000FFF77AFA0146E00704D13868021D3A60A6
:105440000068016028460EE7000014400000F03FAD
:10545000F1D8FFFF0EB5C10F80EAE0700844CA071B
:10546000002140F233438DE80E000A460B46FFF759
:10547000DBFB03B000BD70B5C1F30A5201F000457B
:105480000024C1F3130140F2FF3341F480119A422A
:1054900001DA002070BD40F233439A42A2F2334257
:1054A00003DC5242FFF781FA00E090402C43F1D038
:1054B000404270BD7F2801D9002208E0064A02EB75
:1054C0005002C007127800D1120902F00F02012029
:1054D0009040084070470000ECBA00080EB540F25A
:1054E000334202920022CDE900221346FFF79CFBD3
:1054F00003B000BD70B518480179407901431AD056
:10550000164C607A38B1012808D0022814D0002542
:1055100003281ED113E002F04BFD09E002F0F4FB7A
:105520000E4B206062890833211D00F0B1F96081C3
:10553000607A401C607270BD02F04AFDF8E702F02C
:10554000E9FB064B20601033628A191F00F0A0F9B6
:105550006082657270BD0000340000207C0800206D
:1055600002460020521C04E012F8013B5840491E3C
:1055700089B20029F8D1704770B50E462DED028B27
:10558000B0EE408AF0EE608A040019D051EC180B9E
:105590009FED3B0B53EC102BFFF796F910D3022E27
:1055A00002D0032E03D00BE09FED370B01E09FEDFF
:1055B000380B51EC180B53EC102BFFF79DF903D26D
:1055C0000120BDEC028B70BD06F108012046FEF7FC
:1055D000D8FE51EC180BFFF74AF90546FFF73AF9E8
:1055E00053EC182BFFF752F89FED2B1B53EC112BAC
:1055F000FFF74FF8FFF73BF92E210A22022E02D0C7
:10560000032E1AD03AE0B5FBF2F330332370B5FB2A
:10561000F2F302FB135330336370A1705FF00901A2
:10562000B0FBF2F302FB1303B0FBF2F03033635430
:10563000491EC9B20229F3D820E06426B5FBF6F36F
:1056400030332370B5FBF6F306FB1353B3FBF2F3D1
:1056500030336370B5FBF2F302FB13533033A370A6
:10566000E1700A21B0FBF2F302FB1303B0FBF2F08E
:1056700030336354491EC9B20329F3D80020A0E790
:105680000000000000000000000000000080564004
:10569000000000000080664000000000D01263415E
:1056A00008B500F00F028DF8012000098DF8000008
:1056B00000206B461A5C0A2A01D2303200E03732F1
:1056C0000A54401CC0B20228F4D308BD0699401AFF
:1056D00080B270470FB410B52DED0C8B9DED1ABB49
:1056E0009DED1C9B9FED428B9DED120B53EC182BF7
:1056F00051EC100BFEF7CDFF41EC1A0B53EC182BBD
:1057000051EC190BFEF7C5FF9DED100B41EC190B89
:105710009FED39DB53EC182B51EC100BFEF7B9FF62
:1057200041EC1C0B53EC182B51EC1B0BFEF7B1FF9B
:1057300053EC1C2BFEF7A7FF41EC1B0BB0EE490A04
:10574000F0EE690A03F0E0FBB0EE408AF0EE608A0A
:10575000B0EE4A0AF0EE6A0A03F0D6FBB0EE40CA99
:10576000F0EE60CAB0EE4B0AF0EE6B0A03F0CCFB31
:105770009FED23BB51EC100B53EC1B2BFEF786FF68
:1057800053EC1C2BFEF785FF53EC182BFEF781FF23
:1057900041EC180B53EC1A2B51EC190BFEF773FF6D
:1057A00041EC100B03F0B0FB53EC1B2B51EC100B36
:1057B000FEF76CFF53EC182BFEF7C4FE9FED121B97
:1057C00053EC112BFEF765FF41EC100B03F000FCCE
:1057D00003F0CEF953EC1D2B51EC100BFEF759FFE3
:1057E000BDEC0C8B41EC100B10BC5DF814FB000001
:1057F0001839359D46DF913F00000040A6546841AE
:10580000000000000000F03F000000000000E03F4A
:1058100010B52DED068BB0EE409AF0EE609A51EC8B
:10582000190BFFF724F86421B0FBF1F0FFF712F831
:105830009FED12AB41EC180B53EC1A2B51EC190BEA
:10584000FEF727FFFFF713F80E49B0FBF1F201FB5B
:105850001200FEF7FFFF53EC1A2BFEF78CFF9FEDB3
:105860000A1B53EC112BFEF786FF53EC182BFEF7A7
:1058700069FEBDEC068B41EC100B10BD0000000072
:10588000006AF840809698000000000000004E403A
:1058900070B5064618780024052505280FD2401C4F
:1058A00018700868304408601E78052E01D0104634
:1058B00070BDB0FBF5F00C6080B21C7070BD086864
:1058C000F7E7000002490120487102F0C5B8000066
:1058D00034000020034800210122817102714171CE
:1058E00002F0BAB8340000202DE9F04F2DED048B02
:1058F000B3B09FEDFD8BFEA10025D1E90001CDE9FC
:105900003001FDA0782100683290FCA00068049569
:105910000595099527952895CDE92C0506950795B8
:1059200008952495259526952995109511951295FC
:1059300013951495F24815951695179518950A958F
:105940000B950C950D950E9581460F95FEF719FD5B
:10595000EB48F0217830FEF714FDE94C163C6575F4
:1059600000F0E0FC2B9000F0A9FD10EE107A00F0A2
:10597000C1FDB0EE409AF0EE609A1AA800F0E2FC89
:105980004FF0440A4FF0310B40B100F0ADFD032859
:105990007DD000F0A9FD0428FAD0B7E29DED1E0BE2
:1059A000032184ED620B9DED1C0B84ED600B2098B0
:1059B000C4F890012198C4F8940104A8FFF7DCFD15
:1059C000012865D09DED1E0B022107A8FFF7D4FD2D
:1059D00001285DD0DDE9200102F0BAFF05462298DA
:1059E000FEF75EFF41EC100B13A800F0F9FA064633
:1059F0002398FEF755FF41EC100B16A800F0F0FAC3
:105A0000804653EC182B51EC190BFEF775FF07D2AB
:105A1000B0EE490AF0EE690A0DA800F0E1FA029032
:105A20003846FEF73DFF41EC100B0AA800F0D8FA0B
:105A3000002DB2D0002EB0DBB8F1000FADDB0A2292
:105A4000294624A801F0D8FF012821D00A2227A83E
:105A5000A16801F0D1FF01281AD0227D10A8216988
:105A600001F0CAFF012813D002222DA82B9901F0C2
:105A7000C3FF01280CD09DED1C0B53EC182B51ECEF
:105A8000100BFEF721FF88D09DED1E0B01E0F2E028
:105A900037E253EC182B51EC100BFEF715FFC8D072
:105AA00030A8FEF779FC0246484630A9FEF750FCC4
:105AB00030A8FEF771FCC5B232A8FEF76DFC0246B5
:105AC000601932A91630FEF743FC32A8FEF764FCD9
:105AD0002844C0B22118279A41F8162F289A4A6004
:105AE000BDF8A4200A300A81C0B22118401C2C2520
:105AF000C7B28D752CA8FEF74FFCE31902462CA9FE
:105B000003F11600FEF724FC2CA8FEF745FC3844F0
:105B1000C7B2E019227D10A91630FEF719FC207DCE
:105B20003844C0B22118401C8D75C7B200F0DCFCAF
:105B300002287DD000F0D8FC03287AD000F0D4FCF5
:105B4000042876D04120E11988757F1CF8B221180D
:105B5000401C8D75C7B2E0190DA91630029AFEF7E8
:105B6000F7FB02983844C0B22118401CC0B222187A
:105B70008D75401C82F816B0C0B22218401C957575
:105B8000C0B22218401CC0B2211882F816B08D7520
:105B9000401CC0B22118249A41F8162F259A4A6059
:105BA000BDF898200A300A81C0B22118401C8D75BA
:105BB000C0B22118049A41F8162F059A4A60BDF820
:105BC00018200A819DF81A200B308A72C0B2211861
:105BD000401CC0B222188D754521401C9175C0B281
:105BE0002118401C8D75C0B22118079A41F8162F54
:105BF000089A4A60BDF824200A300A81C0B22118F0
:105C0000401C8D75C0B24E212218401C9175C0B247
:105C10002118401CC7B28D75E019424616A91630EE
:105C2000FEF796FB07EB0800C0B221188D7501E066
:105C30001BE01CE0401CC7B2E019324613A9163025
:105C4000FEF786FBB819C0B22118401C8D75C0B292
:105C50002118BDF82820CA82C01C9DF82A20C0B295
:105C60000A7678287ED260754AE143206BE7E11915
:105C700081F816A069E7A04694ED600B032104A803
:105C8000FFF77AFC94ED620B022107A8FFF774FC82
:105C9000D4E9640102F05CFE0090B0EE480AF0EE38
:105CA000680A13A800F09CF90446B0EE480AF0EE2A
:105CB000680A16A800F094F90646B0EE490AF0EE1C
:105CC000690A0DA800F08CF902903846FEF7E8FD4D
:105CD00041EC100B0AA800F083F9002C00DA002434
:105CE000002E00DA00260DE0000000000000000099
:105CF0004D424130352C000030312C00422C000048
:105D0000C60C00200A2224A8009901F075FE012883
:105D100002D124952595269547460A2227A8D8F82A
:105D2000081001F069FE012802D1279528952995D0
:105D30003A7D10A8396901F05FFE02222DA82B9947
:105D400001F05AFE30A8FEF727FB0246484630A96C
:105D5000FEF7FEFA30A8FEF71FFBC5B232A8FEF729
:105D60001BFB00E0D2E07B19024632A903F11600CA
:105D7000FEF7EEFA32A8FEF70FFB2844C0B239183E
:105D8000279A41F8162F289A4A60BDF8A4200A30B5
:105D90000A81C0B23918401C2C2500F0FF088D750F
:105DA0002CA8FEF7F9FA024607EB08002CA91630DA
:105DB000FEF7CEFA2CA8FEF7EFFA404400F0FF08F9
:105DC00007EB08003A7D10A91630FEF7C1FA397DBD
:105DD00001EB0800C0B23918401CC0B23A188D75EA
:105DE000401CC0B2391882F816A0401C8D7500F016
:105DF000FF0807EB08000DA91630029AFEF7A8FA73
:105E0000029908EB0100C0B23918401CC0B23A1820
:105E10008D75401C82F816B0C0B23A18401C9575BA
:105E2000C0B23A18401CC0B2391882F816B08D754D
:105E3000401CC0B23918249A41F8162F259A4A609E
:105E4000BDF898200A300A81C0B23918401C8D75FF
:105E5000C0B23918049A41F8162F059A4A60BDF865
:105E600018200A819DF81A200B308A72C0B23918A6
:105E7000401CC0B23A188D754521401C9175C0B2C6
:105E80003918401C8D75C0B23918079A41F8162F81
:105E9000089A4A60BDF824200A300A81C0B2391835
:105EA000401C8D75C0B24E213A18401C9175C0B28D
:105EB0003918401C00F0FF088D7507EB08003246CA
:105EC00016A91630FEF744FA08EB0600C0B23918DE
:105ED000401CC6B28D75B819224613A91630FEF7BC
:105EE00037FA3019C0B23918401C8D75C0B2391854
:105EF000BDF82820CA829DF82A200A76C01C787531
:105F0000002033B0BDEC048BBDE8F08F0120F8E732
:105F100070B50E4C607DB8B10DA002F0EDFD04F13E
:105F20001600617D064602F013FB617D04F18E02CE
:105F30004B001546304604F023FA607D41002846A8
:105F400001F002FA002070BD012070BDB00C0020ED
:105F50004244532053656E64203A000070B5184CDB
:105F6000607801282AD100F0DDF9A188884225D087
:105F700000F0D8F9A080192801D201240BE0A0F18B
:105F80001901192901D2022405E03238192801D259
:105F9000032400E0042401250121284601F0CCFD62
:105FA0006D1CEDB2A542F7D9042505E00021284675
:105FB00001F0C2FD6D1EEDB2A542F7D870BD000024
:105FC0002800002005480078022805D0032803D0C7
:105FD0005FF0000001F016BE0120FBE7500000203A
:105FE00053EC102B01A102F097BD000025302E319B
:105FF000660000002DE9F04328212DED028B9BB0B7
:1060000010A8FEF7BEF900F0EBFA00259FED7C8B9F
:106010007D4C00287ED17D4E96ED080BFFF7F8FBF6
:106020008DED120B96ED040BFFF7F2FB8DED140BCB
:1060300096ED0B0A53EC182B8DED180A96ED0C0A11
:106040008DED190AB0681790706816909DED120BCF
:1060500051EC100BFEF738FC5CD09DED140B53ECAB
:10606000182B51EC100BFEF72FFCF5D0218806F110
:10607000A00869B106F1B0073036012914D00DF13E
:10608000500906F1480802292FD0032942D16CE0BB
:106090009DED120B012088ED020B9DED140B88ED98
:1060A000040BA8F800505AE0282210A906A8FEF711
:1060B0004FF9182239466846FEF74AF9703696E8D5
:1060C0000F00FFF707FB51EC100BFEF7D0FB81B27E
:1060D000ADF8401023291DD29DED120B88ED020B67
:1060E0009DED140B88ED040B35E0282210A906A8BD
:1060F000FEF72EF9182239466846FEF729F9703660
:1061000096E80F00FFF7E6FA51EC100BFEF7AFFB35
:1061100080B200E072E0ADF8400023286ED23B4927
:106120002822A03106A8FEF713F91822494668462E
:10613000FEF70EF910AE96E80F00FFF7C7FA0A282F
:106140005CD29DED120B88ED020B9DED140B88EDDA
:10615000040BBDF84010A8F800102088401C2080D7
:106160001BB0BDEC028BBDE8F083282210A906A865
:10617000FEF7EEF82549182288316846FEF7E8F860
:10618000483696E80F00FFF7A5FA51EC100BFEF722
:106190006EFB80B2ADF8400023282FD21B49282285
:1061A000783106A8FEF7D4F8182249466846FEF76B
:1061B000CFF810AE96E80F00FFF788FA0A281DD234
:1061C0009DED120B88ED020B9DED140B88ED040B79
:1061D000BDF84010A8F800109DED180A88ED080AD7
:1061E0009DED190A88ED090A1699C8F81810179933
:1061F000C8F81C106088401C6080B1E72580AFE7BC
:1062000000000000000000003C00002060090020A9
:106210002DE9F0470026194F88468146344600BFD5
:1062200004EB440000EBC400C1190D4606224846A9
:10623000FEF7B9F800B9AE7A641CE4B2032CEFD3D0
:10624000002E19D0012E03D0022E01D0032E13D11F
:106250000BA002F051FC4146484602F079F90EA02D
:1062600002F04AFC4146484600F0EEF9002803D10E
:10627000BDE8F047FFF7BEBEBDE8F08728B90008CB
:106280005265636569766520474E535320524D43EE
:106290002064617461203A00474E535320524D43AD
:1062A00020646174612053706C69740A00000000FE
:1062B00010B500F005F8BDE8104000F015B800007A
:1062C000074810B5002120F8C81F8170C821044874
:1062D000FEF757F8BDE81040C8210248FEF751B854
:1062E00090080020280A002010B538210B48FEF73E
:1062F00048F80A483F213830FEF743F8074828217C
:106300007830FEF73EF805482821A030FEF739F82E
:106310000348002101804180818010BD6009002078
:106320003C00002001480078704700003400002045
:1063300003494A78002A02D000224A704860704718
:106340007C160020FEB52F498B884A88934256D090
:106350002D4C8A8094ED040B80ED040B94ED020B20
:1063600080ED020B94ED080A80ED080A94ED090A0D
:1063700080ED090AA1698161E169C161A1696420B7
:10638000B1FBF0F200FB1217B1FBF0F2B2FBF0F33D
:1063900000FB132642F21072B1FBF2F5E1690835F9
:1063A000B1FBF2F3B1FBF0F2B2FBF0FC00FB1C22FC
:1063B000B1FBF0FC00FB1C118DE8E00013A002F023
:1063C0009BFB94ED040B1AA08DED000B94ED020BDA
:1063D00053EC102B02F090FB606AFEF761FA054661
:1063E0000E46206AFEF75CFA41EC100BCDE9005630
:1063F00053EC102B16A002F07FFB0020FEBD012005
:10640000FEBD00003C000020D809002043757272D8
:10641000656E742054696D65203A20323025642DF4
:1064200025642D25642025643A25643A25640A00F4
:1064300043757272656E74204C6F636174696F6E20
:10644000203A2025662045202566204E0A000000BF
:1064500043757272656E74205370656564203A20CE
:10646000252E3266204B6E6F742C43757272656EEA
:10647000742048656164696E67203A20252E326673
:106480000A00000001484078704700002800002002
:10649000074810B5408AFEF7DDF99FED061B53EC67
:1064A000112BFEF7F6F8FEF7E2F980B210BD0000FE
:1064B0007C0800209A9999999999FD3F074810B551
:1064C000408AFEF7C7F99FED061B53EC112BFEF730
:1064D000E0F8FEF729FA00EE100A10BD7C08002053
:1064E000ACADD85F764F5E3F014800787047000042
:1064F00050000020124810B54089FEF7ABF99FED1F
:10650000111B53EC112BFEF7C4F89FED101B53EC3D
:10651000112BFEF7BEF89FED0F1B53EC112BFEF76E
:10652000B5F89FED0E1B53EC112BFEF724F99FEDF0
:106530000D1B53EC112BFEF705F841EC100B10BDB1
:106540007C0800206666666666660A4000000000F9
:106550000000303F295C8FC2F528F43F33E197FA01
:10656000795371BF000000000000394001480079F4
:1065700070470000340000207CB5054600200C4622
:1065800001908DF80000C8211248FDF7FAFE22465E
:1065900029461048FDF7DCFE0A2C19D30D486A463F
:1065A00020440DA130F8040CADF8040001A8FDF75B
:1065B00007FFA01F81B2074801F032FA9DF80010D2
:1065C000814203D121460348FFF722FEFFF778FE00
:1065D0007CBD0000280A00202568687800000000C3
:1065E0000548416821B1816811B1007B412801D083
:1065F00001207047002070476009002070B5114CE1
:10660000002594F8CA1079B1605494F8CA10491C56
:10661000C9B284F8CA100A280DD0642910D900BF65
:1066200084F8CA50012070BD2428F9D120700120BF
:1066300084F8CA0004E00348FFF79EFF84F8CA50BC
:10664000002070BD900800202DE9F04706240F4679
:106650000546062902D3A8792C2802D00120BDE8DE
:10666000F087DFF854910026A9F13808601CC0B209
:10667000641CE4B2BC420DD2295D2C2901D02A2928
:10668000F6D1092E1AD2DFE806F00B1A2532414E58
:106690005D6E7F00484838213838FDF772FEDDE72F
:1066A000221A29184448FDF753FE434802F010FC13
:1066B00051EC100BFEF7DBF8C8F8040074E0221A66
:1066C00029183D481230FDF743FE99F8121088F85A
:1066D0000C1069E0221A2918374814308246FDF759
:1066E00037FE504602F0F4FB88ED040B5CE0221A02
:1066F000291831481E30FDF72BFE99F81E0088F846
:10670000180078BB4E2088F818004DE0221A29188E
:10671000294820308246FDF71BFE504602F0D8FB88
:1067200088ED080B40E0221A291823482B30FDF78A
:106730000FFE99F82B1088F8281099B9452188F890
:10674000281031E0221A29181B482D308246FDF707
:10675000FFFD504602F0BCFB51EC100BFEF7E4F8D5
:10676000C8F82C0020E0221A291813483730824636
:10677000FDF7EEFD504602F0ABFB51EC100BFEF7BF
:10678000D3F8C8F830000FE0221A29180A480B3055
:106790008246FDF7DDFD504602F09AFB51EC100BEE
:1067A000FEF765F8C8F80800761CF6B2082E7FF6EA
:1067B0005DAF002053E700009809002070B501F09C
:1067C000BDFA114C0025E0B16078002818D120787E
:1067D000002815D16088411C6180B0F5967F0FD9E3
:1067E0000AA002F089F902202070410365800D485B
:1067F00004F03AFA012060700B480570456045725C
:1068000070BD6580257070BD280000204D61674B0C
:106810006579204F6E20616E6420506F77204F4E57
:106820000A00000000040240500000202DE9F04161
:10683000FFF75AFE012803D0FFF756FE022829D1A0
:10684000604C0025022720795F4E4FF4807807289E
:1068500020D2DFE800F0042B3F4D63768C005BA074
:1068600002F04AF92560206920B100F033FEA168EA
:10687000884210D00125657300F02CFEA0604146CF
:10688000304604F0EFF98021304604F0EBF901F0D6
:1068900061FD257192E001F04BFD4146304604F068
:1068A000E3F98021304604F0DFF983E0607B60B1DA
:1068B00000F032FD2068411C21600A287ED9514831
:1068C00002F01AF925606573E5E74FA002F014F9AC
:1068D0002560E0E75C4802F00FF9FEF7FBFF40217E
:1068E000304604F0C1F901F017FC0320256013E0E5
:1068F0002068411C2160302860D954A002F0FCF8C7
:1069000041463046256004F0ADF98021304604F060
:10691000A9F901F01FFD042020714FE02068052631
:10692000411C21600A280AD2FEF7DEFF002845D16B
:1069300054A000BF02F0E0F8256026713EE05EA0A2
:10694000F8E720680626401CA0F10B012060092909
:1069500004D800F0AFFC70B3674802E014282DD9CA
:10696000664802F0C9F82560FFF7D2FAE5E720682B
:10697000401C2060022814D101F09EFE60A002F0AD
:10698000BBF801F0D5FC01F0B5FB4146304604F000
:106990006BF98021304604F067F94021304604F05D
:1069A00061F9FFF7A1FD0228206805D0B0F5077F47
:1069B00004D92560277101E03C28FAD80020BDE801
:1069C000F0810000B00C0020000802404E6F726D94
:1069D000616C204D6F6465203A4F70656E205244A3
:1069E000535320616E642047657420496E746F2094
:1069F00053746570204E4F524D414C5F474554498A
:106A0000440A0000A4BD00084E6F726D616C204DF9
:106A10006F64653A4765742043617264204944207D
:106A20005375636320616E6420496E746F205374E4
:106A30006570204E4F524D414C5F4F50454E5F4761
:106A40004E53530A00000000B0BC00084E6F726D38
:106A5000616C204D6F64653A4F70656E20526473AF
:106A60007320616E642047657420496E746F2053F3
:106A7000746570204E4F524D414C5F4144444C4F21
:106A800043410A004E6F726D616C204D6F64653A30
:106A9000416464204C6F63612044617461205375CC
:106AA000636320616E642047657420496E746F20B3
:106AB0005374657020360A004E6F726D616C204D04
:106AC0006F64653A416464204C6F63612044617473
:106AD00061204661696C20616E64204765742049BD
:106AE0006E746F2053746570204E4F524D414C5F51
:106AF00053454E440A0000003CBE0008F4BD0008A7
:106B0000436C6F736520526473730A002DE9F04182
:106B1000284C2078002816D0607B274E4FF48077D1
:106B2000002590B1012823D002280CD104F044F9AB
:106B30003946304604F098F88021304604F094F845
:106B400001F0F6FB2570BDE8F081658125732572A3
:106B500001256570FEF7BEFE3946304604F082F826
:106B60008021304604F07EF801F0F4FB6573EAE71B
:106B700060780226B0B16089411C61810928E2D9A0
:106B80006581207B411C2173032807D9FFF7EEFCA8
:106B90000028D8D125736570656008E0BDE8F04134
:106BA00000F0BABBFFF7E2FC0028CCD16581667328
:106BB000C9E700007C1600200008024070B5194C9F
:106BC000002694F86410E9B1012923D0605494F8A8
:106BD0006400401CC0B284F864006578A84215D1F6
:106BE000A81EC1B2601C01F0DBFC6119C0B211F833
:106BF000011C884201D084F864602946094801F0EC
:106C0000DDFC01E07E2802D084F8646070BD207055
:106C1000012004E0C11E6229F6D26070022084F8CF
:106C2000640070BD8C1600202DE9F041FFF75CFC7C
:106C3000032803D0FFF758FC042848D1574C0227FB
:106C4000574E207900254FF4807807283FD2DFE89F
:106C500000F0042444526370830052A001F04CFF02
:106C60002560206920B100F035FCA16888420FD072
:106C700000F030FCA0604146304603F0F3FF802175
:106C8000304603F0EFFF01F065FB0120607341E047
:106C900053A001F031FF657318E0607BC0B100F0D4
:106CA0003BFB2068411C21600A2874D9594801F037
:106CB00023FF256084F80D5001F03AFB4146304631
:106CC00003F0D2FF8021304603F0CEFF277162E04F
:106CD000514801F011FF2560EEE7504801F00CFF2C
:106CE000FEF7F8FD4021304603F0BEFF01F014FA34
:106CF000032025600EE04AA001F0FEFE414630462A
:106D0000256003F0AFFF8021304603F0ABFF01F0B8
:106D100021FB042020713EE0FEF7E6FD052630B1A0
:106D20004F4800BF01F0E8FE2560267133E04D4872
:106D3000F8E720680626401C206014280AD200F0DC
:106D4000B9FA40B3484800BF01F0D6FE2560FFF70E
:106D5000DFF8EAE74548F7E72068401C2060022892
:106D600014D101F0A9FC42A001F0C6FE01F0E0FA46
:106D700001F0C0F94146304603F076FF80213046ED
:106D800003F072FF4021304603F06CFF20686E284C
:106D900001D925609AE70020BDE8F081B00C002001
:106DA0000008024050756C6C204D6F646520537470
:106DB000657020313A4F70656E2052445353206104
:106DC0006E642047657420496E746F20537465703B
:106DD000204E4F524D414C5F47455449440A0000F4
:106DE00050756C6C204D6F64652053746570203154
:106DF0003A47657420496E746F2053746570204E55
:106E00004F524D414C5F4F50454E5F474E53530AD2
:106E1000000000004CBD000808BD000854BC00087C
:106E200050756C6C204D6F64652053746570203410
:106E30003A4F70656E205264737320616E64204710
:106E4000657420496E746F2053746570204E4F52E4
:106E50004D414C5F4144444C4F43410A0000000007
:106E600070BB00082CBB000804BC0008B4BB0008C1
:106E7000436C6F736520526473730A002DE9F04709
:106E800000261F4F88468146012400BF04EB4400C2
:106E900000EBC400C519A5F10B0106224846FDF719
:106EA00082FA08B915F8016C641CE4B2032CEDD326
:106EB000002E23D0012E11D0022E1FD111A001F0DF
:106EC0001BFE4146484601F043FB14A001F014FEAE
:106ED00041464846BDE8F04700F09AB815A001F0D9
:106EE0000BFE4146484601F033FB18A001F004FEBA
:106EF00041464846BDE8F04700F0ECB8BDE8F087F1
:106F000049B9000852656365697665205244535358
:106F1000204943502064617461203A005244535325
:106F20002049435020646174612053706C69740A75
:106F30000000000052656365697665205244535332
:106F4000205057492064617461203A0052445353E1
:106F50002050574920646174612053706C69740A31
:106F60000000000010B500F005F8BDE8104000F08A
:106F700015B80000084810B5002120F8C81F81701E
:106F8000C8210548FDF7FDF90348C821BDE81040B8
:106F9000CC30FDF7F6B90000180B0020282101487D
:106FA000FDF7EFB9F00A00207CB5054600200C463D
:106FB00001908DF80000C8211248FDF7E2F9224641
:106FC00029461048FDF7C4F90A2C19D30D486A4622
:106FD00020440DA130F8040CADF8040001A8FDF721
:106FE000EFF9A01F81B2074801F084FB9DF8001063
:106FF000814203D121460348FFF740FFFFF7BAFF64
:107000007CBD0000E40B00202568687800000000CB
:107010002DE9FE4F002506240F460646A846AB463E
:10702000A946009501950295062912D3B0792C281E
:107030000FD1601CC0B2641CE4B2BC4209D2315D05
:107040002C2901D02A29F6D1FDB9211A8A4609290D
:1070500002DD0120BDE8FE8F0A4631186846FDF7C3
:1070600077F9BAF1020F02DA4FF0000807E00AF0F0
:10707000FF01684603F0A8F980460AF0FF0BCDF83F
:107080000090CDF80490CDF808906D1CEDB2012D64
:10709000CFD95A46414606A001F02EFD4046FFF7E3
:1070A00047F95946404600F05FFA0020D2E7000059
:1070B0005244535320436172642049443A2025646A
:1070C0002C204361726420436F6E74203A20256443
:1070D0000A0000002DE9FF5F002606240F46054642
:1070E000B246B3460396009601960296062902D34D
:1070F000A8792C2803D0012004B0BDE8F09FDFF868
:107100006481601CC0B2641CE4B2BC4247D2295DF9
:107110002C2901D02A29F6D1221A0B2A3FDC16B1DC
:10712000022E1DD109E029186846FDF711F96846BD
:1071300001F0CEFE88ED000B0CE029186846FDF743
:1071400007F9684601F0C4FE51EC100BFDF78FFB08
:1071500088F80800CDF800B0CDF804B0CDF808B03C
:10716000761CF6B2022ECCD998F808000A2816D858
:10717000C14600286FD000EB400000F0FF08002659
:1071800067E0601CC1B2641CE4B2BC4207D2285D57
:107190002C2801D02A28F6D1621A0B2A04DD2821D6
:1071A0003048FDF7EEF8A6E75FEA0A0000F10103B8
:1071B00003F0FF0A04D0012814D0022847D129E0A7
:1071C00029446846FDF7C4F8684601F081FE51EC99
:1071D000100BFDF74CFB039901EB410202EB090197
:1071E000487210E029446846FDF7B2F8684601F09D
:1071F0006FFE51EC100BFDF73AFB039901EB4102D6
:1072000002EB09018872CDF800B0CDF804B0CDF8DA
:1072100008B01CE029446846FDF79AF8684601F07A
:1072200057FE51EC100BFDF722FB03994FF0000ABB
:1072300001EB410202EB0901C8720398CDF800B0DE
:10724000401CC0B2CDF804B0CDF808B00390761C55
:10725000F6B2464595D300F037F889F827000020AC
:107260004AE70000F00A002070B5114C002594F8A0
:10727000CA1079B1605494F8CA10491CC9B284F894
:10728000CA100A280DD0962910D900BF84F8CA5018
:10729000012070BD2428F9D12070012084F8CA0093
:1072A00004E00348FFF780FE84F8CA50002070BD58
:1072B000180B0020034890F8270008B10020704701
:1072C00001207047F00A002070B5104D0024287A84
:1072D000012819D995ED000B9FED0D1B51EC100BFA
:1072E00053EC112BFDF708FB0ED2287A0AE000BF01
:1072F00004EB44012944897A2D2901D9002070BD6D
:10730000641CE4B2A042F3D8012070BDF00A002052
:10731000000000000000344000B585B0142205A133
:107320006846FDF715F81021684604F095F905B098
:1073300000BD00002443434943522C302C30302AF6
:1073400036380D0A000000002DE9F0410D4655A128
:107350008AB00600D1E9000154A2CDE9040107CAB0
:107360008DE8070054A00068069054A000680790BC
:1073700053A00068089050A0006809907ED0002DAE
:10738000FCD04FF4FA614F48FCF7FBFF05F1170002
:107390004C4C1FFA80F82420207004A8FCF7FCFF56
:1073A0000246601C04A9FCF7D3FF04A8FCF7F4FF15
:1073B000401C87B26846FCF7EFFF0246E0196946B9
:1073C000FCF7C6FF6846FCF7E7FF384487B206A81B
:1073D000FCF7E2FF0246E01906A9FCF7B9FF06A890
:1073E000FCF7DAFF384487B208A8FCF7D5FF02465D
:1073F000E01908A9FCF7ACFF08A8FCF7CDFF38445A
:1074000087B209A8FCF7C8FF0246E01909A9FCF7F2
:107410009FFF09A8FCF7C0FF384487B2E0192A464D
:107420003146FCF795FF781980B22C212154401C7D
:1074300085B207A8FCF7B0FF0246601907A9FCF760
:1074400087FF07A8FCF7A8FF284480B22A2121540F
:10745000401C85B241462046FEF782F803A9FEF79C
:107460001FF96019BDF80C100180AD1CA8B20D21E8
:107470002154401C80B20A21215400E010E0401C3D
:1074800084B221460F4804F0E7F80FA001F034FB66
:1074900021460C4801F05CF800200AB0BDE8F081FC
:1074A0000120FAE743435443512C00003133353077
:1074B000303030312C000000322C00003000000051
:1074C000312C0000480E00204244532053656E6466
:1074D000203A0000014800F007BC000000F80F0847
:1074E00010B5074803F030FD002808D004780448A0
:1074F00003F00AFD2046BDE81040FFF77FB810BD3D
:107500005C00002010B5054803F01EFD002804D0E3
:10751000BDE81040014803F0F7BC10BD700000202A
:1075200010B5074803F010FD002808D0047804487F
:1075300003F0EAFC2046BDE81040FFF73FBB10BD5A
:107540008400002010B5074803F0FEFC002808D096
:107550000478044803F0D8FC2046BDE81040FFF74B
:1075600083BE10BD98000020054A537B002B05D038
:10757000002803D000235373106111757047000079
:10758000B00C00200D4910B500200871FFF7EAFC8F
:10759000FEF78EFE00F0AEFD00F0CAFE084C402162
:1075A000204603F05FFBA115204603F05DFB20465B
:1075B000BDE81040802103F057BB0000B00C002054
:1075C000000802400D4910B500200871FFF7CAFC01
:1075D000FEF76EFE00F08EFD00F0AAFE084C402182
:1075E000204603F03FFBA115204603F03DFB20465B
:1075F000BDE81040802103F037BB0000B00C002034
:10760000000802400D4910B500200871FFF7AAFCE0
:10761000FEF74EFE00F06EFD00F08AFE084C4021A1
:10762000204603F01FFBA115204603F01DFB20465A
:10763000BDE81040802103F017BB0000B00C002013
:10764000000802400D4910B500200871FFF78AFCC0
:10765000FEF72EFE00F04EFD00F06AFE084C4021C1
:10766000204603F0FFFAA115204603F0FDFA20465C
:10767000BDE81040802103F0F7BA0000B00C0020F4
:107680000008024070B538484078012826D1374CB0
:107690000125257200F060FB08B10220207200F085
:1076A00067FB08B104202072217A31A001F024FA8E
:1076B00021780020052911D2DFE801F0032E354E94
:1076C0004500217A627A914201D061724AE0012933
:1076D00026D16068411C616003282FD870BD6068A6
:1076E000411C61600328F9D9BDE8704000F01ABF61
:1076F00003292ED16068411C61600328EED9BDE8E2
:10770000704000F0C7BE6068411C61600328E5D985
:10771000BDE8704000F0EEBE217A627A9142D4D189
:107720000229E5D1DBE7217A627A9142CDD10129A4
:10773000DED16068411C61601428CFD92570BDE896
:10774000704000F0BFBE217A627A9142BDD101291A
:10775000EFD00429D7D005E0217A627A9142B4D1E2
:107760000129E6D0606070BD280000205000002094
:107770005072696F72697479203D2025640A000097
:1077800010B5104B4FF4FA7401222146A3F15000BA
:1077900003F0E6FB0C4B01222146A3F50C7003F02D
:1077A000DFFB0A4B01222146A3F5826003F0D8FBE0
:1077B000074B2146BDE810400122A3F5BE6003F04F
:1077C000CFBB0000AC000020A002002094040020E9
:1077D0008806002070B5224C224E254D2DED028BDF
:1077E00020799FED218BF8B1A079411CA1710A2865
:1077F0001AD90020A07120717089FDF72BF853EC85
:10780000182BFCF746FFFDF732F881B2207805E02F
:1078100035F810208A4203D3401EC0B20028F7D1A9
:107820002070618000F008F96079002814D0708918
:10783000FDF710F853EC182BFCF72BFFFDF717F8AA
:1078400081B2632035F810208A4203D3401E10F025
:10785000FF00F7D120706180BDEC028B70BD00008D
:10786000340000207C080020666666666666F63F87
:1078700060B800082DE9F0413B4C607970B10126F9
:107880000225012812D0022819D0032804D100F0C3
:1078900047FA002800D16571BDE8F08100F074FA64
:1078A0000028F9D0BDE8F04100F0BCBF6420A07012
:1078B00000202080E6702071FEF704F8EBE700F06E
:1078C0002FFA032788B10121084600F035F901217C
:1078D000022000F031F90121032000F02DF90121EF
:1078E000042000F029F9677136E0FEF71BFDA1784E
:1078F00088422ED0FEF716FDA070192801D2E6703E
:107900000CE0A0F11901192901D2E57006E0323826
:10791000192801D2E77001E00420E0702179E078B5
:10792000814216D02071012505E00121284600F092
:1079300003F96D1CEDB2E078A842F6D2042505E00B
:107940000021284600F0F8F86D1EEDB2E078A8425C
:10795000F6D3E07800F014F900F016FA00289BD175
:10796000BDE8F04100F07CBF2E0000200149024834
:1079700000F0BCB95555AAAA00F00F08014601480D
:1079800000F0B4B900F80F0810B54FF48074204629
:1079900002F098FF002807D0204602F04FFF600257
:1079A000BDE8104003F06EB810BD10B5012003F023
:1079B0006FF8002804D0BDE81040012003F062B841
:1079C00010BD10B5022003F063F8002804D0BDE814
:1079D0001040022003F056B810BD10B5202003F06F
:1079E00057F8002804D0BDE81040202003F04AB822
:1079F00010BDFFF7C5BE000030B50A230CE000BF84
:107A0000B1FBF3F403FB1414B1FBF3F1851830342C
:107A1000521E05F8014CD2B2002AF1D1002030BD2F
:107A200002460020521C04E012F8013B5840491E57
:107A300089B20029F8D1704710B50021044802F03E
:107A400006FCBDE810400021024802F000BC000026
:107A5000002001400021014030B585B002A803F0AC
:107A60000AF903208DF80E0010202F4C029002A975
:107A7000204603F00AF92020029002A9204603F0D4
:107A800004F90121294802F0A3FD28480121401CE6
:107A900002F09EFD684602F0D1FB00248DF8004004
:107AA00002208DF801008DF8044001258DF8024078
:107AB0008DF805508DF803408DF80640684602F0B9
:107AC0007BFB04A802F070FB8DF810408DF811408C
:107AD0008DF81240164C8DF8135004A9204602F080
:107AE0004DFB144D04A9284602F048FB0723012250
:107AF0001021204602F0B0FB042302220521284673
:107B000002F0AAFB0121204602F0E3FB01212846F6
:107B100002F0DFFB0121204602F099FB01212846FB
:107B200002F095FB05B030BD0000024008004400A3
:107B300000200140002101400F4A01280CD00228FA
:107B40000DD003280ED0042814D10C4800294FF082
:107B500004010DD003F088B84FF4807004E04FF4B6
:107B6000006001E04FF48050002901461046F1D139
:107B700003F078B87047000000000240001C02408B
:107B8000012807D0022807D0032807D0042807D1EE
:107B900000F06EBC00F030BC00F042BC00F054BC01
:107BA000704700007CB5684603F065F802208DF848
:107BB000070000254002124E8DF806500124009067
:107BC0008DF805406946304603F05FF820030090C9
:107BD0006946304603F059F88DF807408DF8045097
:107BE0008DF80640E50300958DF80540694630465E
:107BF00003F04BF82946304603F036F87CBD000010
:107C00000004024070B50D4E04464FF4007529463D
:107C1000304603F073F83CB100280DD129463046B8
:107C2000BDE8704003F020B8002805D02946304652
:107C3000BDE8704003F016B870BD000000080240B7
:107C400010B54FF000642068A0F10050B0F5C02FCF
:107C500040D802F043FB00211F4802F0B9FC00218C
:107C60001E4802F0B5FC1D480021401C02F0B0FC8B
:107C70001A480021801C02F0ABFC00214FF4401098
:107C800002F0A6FC0021164802F0A2FC14480021D4
:107C9000401C02F09DFC12480021801D02F098FC5F
:107CA0000D4800210A3002F093FC252003F088F9EA
:107CB000262003F085F9272003F082F9342003F011
:107CC0007FF9084960680860216881F30888BDE889
:107CD0001040004710BD00000400440011004000A7
:107CE00001003000240000200068704770B50C4689
:107CF000054602F069FF284602F030FF214628467B
:107D0000BDE8704002F070BF014802F0DFBA000029
:107D100000200140014802F0D9BA000000210140D2
:107D200010B54FF48051044802F0E1FF08B1002083
:107D300010BD012010BD00000004024010B54FF43A
:107D40000051044802F0D3FF08B1002010BD01200B
:107D500010BD00000004024010B50221034802F0EB
:107D6000C6FF08B1002010BD012010BD0000024078
:107D700010B52021034802F0BAFF002800D00120EE
:107D800010BD00000004024010B54FF480610448AB
:107D900002F0ADFF08B1002010BD012010BD0000B1
:107DA000000402407CB5684602F065FF01248DF8AE
:107DB000074000208DF8060060030D4D00908DF8FF
:107DC00005406946284602F060FF0220094E0090F7
:107DD0006946304602F059FF69463046009402F089
:107DE00054FF202000906946284602F04EFF7CBDDB
:107DF00000040240000002402DE9FC47684602F002
:107E00003AFF01218DF8071000208DF804008DF84D
:107E100006100C02DFF874A08DF805000094694686
:107E2000504602F032FFE50069465046009502F0E8
:107E30002CFF260169465046009602F026FF0420DA
:107E4000DFF84C8000906946404602F01EFFDFF8E4
:107E50004490670069464846009702F016FF39468D
:107E6000484602F0FFFE2146504602F0FBFE29463E
:107E7000504602F0F7FE3146504602F0F3FE042170
:107E8000404602F0EFFEBDE8FC8700000000024023
:107E9000001C0240000802402DE9FC41684602F047
:107EA000EAFE01208DF8070000218DF804108DF8FE
:107EB00006008403DFF86C808DF8050000946946A5
:107EC000404602F0E2FE184FA5116946384600957B
:107ED00002F0DBFE802000906946384602F0D5FEB5
:107EE000402669463846009602F0CFFE00960F4EB7
:107EF0006946304602F0C9FE2146404602F0B2FE15
:107F00004021384602F0AEFE2946384602F0ACFE6B
:107F10008021384602F0A8FE4021304602F0A4FE3F
:107F2000BDE8FC810004024000080240000002405D
:107F30002DE9F0410E460746154601211A4802F088
:107F400047FB012003F040F9012002F07DFA0020F8
:107F500002F07AFA0121042002F07EFA134C204646
:107F600002F010FB0028FAD0022002F0FBFA0120F8
:107F700002F0F0FA02F0EEFC02F066FDFF217F2035
:107F800002F03CFC002002F067FC052301221946A8
:107F9000172002F0F7FB2A4631463846BDE8F0418B
:107FA000002302F015BD00001C0040000100740019
:107FB00010B5064C072301221021204602F04CF98F
:107FC0002046BDE81040012102F083B900200140A5
:107FD00010B5064C042302220521204602F03CF98C
:107FE0002046BDE81040012102F073B90021014094
:107FF00010B502F035FB0121374802F0E9FA3748A5
:10800000016921F00701491C01613548016821F02F
:108010000301491C01600121084602F01DFA00BF5E
:1080200002F0C2FA0028FBD00323022260210120C3
:1080300002F0FAFA0121022002F00EFA192002F0F1
:10804000A1FA0128FAD1002002F0D8F9002002F0AC
:10805000E5F9002002F0DAF9012002F0E7F9022048
:1080600002F02AFB02F044FB0228FBD1002002F0C0
:10807000DDF903F0E9F801214FF4401002F0A8FA0D
:108080000121184802F0A4FA16480121401C02F010
:108090009FFA14480121801D02F09AFA012112482A
:1080A00002F096FA042003F01DF910484FF47A719B
:1080B0000068B0FBF1F0401EB0F1807F0AD24FF0B3
:1080C000E02148610A4AF02082F8140D00208861FE
:1080D0000720086110BD00001C0040000070004037
:1080E000603C0240010030000E004400000000200F
:1080F0000FE000E010B5064C0021204603F0CDFA59
:108100002046BDE810400022024903F01BBB0000DE
:108110000010014005000C001CB50121234802F0AD
:1081200057FA684602F0A7FD01208DF807000020ED
:108130008DF8040002218DF8061009021C4C0091F4
:108140008DF805006946204602F09FFD201500903D
:108150006946204602F099FD07220921204602F0D7
:10816000D4FD07220A21204602F0CFFD002211464D
:10817000252002F037FF0F4C002301224FF4E1319C
:10818000204603F09DFA0121204603F03AFB01212D
:10819000204603F02CFB01220749204603F0D2FAC7
:1081A0000121204603F079FA1CBD000004004400C0
:1081B000000002400010014005000C001CB5012128
:1081C000234802F005FA684602F055FD01208DF8BB
:1081D000070000208DF8040002218DF8061004210C
:1081E0001C4C00918DF805006946204602F04DFDBB
:1081F000082000906946204602F047FD0722022130
:10820000204602F082FD07220321204602F07DFD78
:1082100000221146262002F0E5FE0F4C0023012229
:108220004FF4E131204603F04BFA0121204603F0E0
:10823000E8FA0121204603F0DAFA01220749204634
:1082400003F080FA0121204603F027FA1CBD00004C
:1082500011004000000002400044004005000C00F6
:1082600010B5064C0021204603F017FA2046BDE861
:1082700010400022024903F065BA000000480040A7
:1082800005000C001CB50121254802F0A1F9684643
:1082900002F0F1FC01208DF8070000208DF80400A9
:1082A00002218DF8061020211E4C00918DF805004A
:1082B0006946204602F0E9FC1020009069462046FD
:1082C00002F0E3FC07220521204602F01EFD0722F2
:1082D0000421204602F019FD00221146272002F059
:1082E00081FE114C002301224FF4E131204603F0BE
:1082F000E7F90121204603F084FA0121204603F02A
:1083000076FA0121204603F077FA01220749204638
:1083100003F018FA0121204603F0BFF91CBD00004C
:1083200012004000000802400048004005000C0018
:1083300010B5064C0021204603F0AFF92046BDE8F9
:1083400010400022024903F0FDB90000004C00403B
:1083500005000C001CB50121234802F039F96846DC
:1083600002F089FC01208DF8070000208DF8040040
:1083700002218DF8061049021C4C00918DF8050071
:108380006946204602F081FCE014009069462046D0
:1083900002F07BFC08220A21204602F0B6FC0822EB
:1083A0000B21204602F0B1FC00221146342002F0DD
:1083B00019FE0F4C002301224FF4E131204603F057
:1083C0007FF90121204603F01CFA0121204603F029
:1083D0000EFA01220749204603F0B4F90121204694
:1083E00003F05BF91CBD00001300400000080240D0
:1083F000004C004005000C0070B5084D4FF480742F
:108400002146284602F07AFC08B1002200E0012251
:1084100021462846BDE8704002F028BC000002401A
:1084200070B5084D4FF400642146284602F066FC02
:1084300008B1002200E0012221462846BDE8704034
:1084400002F014BC0000024070B5084D4FF4805497
:108450002146284602F052FC08B1002200E0012229
:1084600021462846BDE8704002F000BC00000240F2
:1084700010B5074C0421204602F040FC08B1002250
:1084800000E001222046BDE81040042102F0EEBBCE
:10849000001C024010B505A000F02EFB0849042086
:1084A0000870BDE81040FFF76DB8000053746172AA
:1084B00074204D6F7665204D6F64650A00000000E2
:1084C0005000002010B505A000F016FB084901205F
:1084D0000870BDE81040FFF775B800005374617272
:1084E00074204E6F726D616C204D6F64650A0000E0
:1084F0005000002010B505A000F0FEFA0849032046
:108500000870BDE81040FFF77DB800005374617239
:10851000742050554C4C204D6F64650A00000000DB
:108520005000002010B505A000F0E6FA074902202F
:108530000870BDE81040FFF785B800005374617201
:108540007420534F53204D6F64650A005000002083
:1085500010B503F04DF8BDE8104001A000F0CCBA12
:108560000A00000010B54FF48041480302F08AFD74
:10857000FFF73EFD032002F073FDFFF713FCFFF74A
:108580003BFCFFF789FCFFF70DFBFFF717FE00220E
:1085900011460120FFF7CCFCBDE8104000F07AB88E
:1085A000002228B907E000BF10F8013B1A4492B23C
:1085B000491EC9B2F8D210467047000070B59AB093
:1085C0000D46044664216846FBF7DBFE2D1FA678A6
:1085D000EAB2E11C6846FBF7BBFE122E20D00ADC93
:1085E000012E16D0032E0ED0112E02D1684602F0B5
:1085F000C5FD1AB070BD142E15D0152EF9D16846E0
:1086000002F080FDF5E70AA000F076FA02F0C8FB60
:10861000EFE70AA000F070FA684602F08EFBE8E788
:1086200003F0F4F8E5E7684602F036FDE1E7000004
:10863000496E666F72204765740A000049442057EE
:10864000726974650A0000002DE9F0410746101DAB
:108650008846C5B2164664210D48FBF792FE0C4CC5
:108660007E20324620706570A7704146E01CFBF703
:108670006FFEA81EC1B2601CFFF792FF611901F8DE
:10868000010C29462046BDE8F04102F0CBBF0000B6
:108690001816002010B502F0C3FB06494860486870
:1086A0004FF0FF3101EBD01081B2BDE810407F20C8
:1086B00002F0A4B80800002010B5064802F02AF81D
:1086C000044843790279C178BDE8104002A000F067
:1086D00013BA00001C0000205254432054696D65F9
:1086E000203A20253032643A253032643A2530323F
:1086F000640D0A0002460020521C04E012F8013BFF
:108700005840491E89B20029F8D1704710B50B4C6A
:10871000A078411CA17009280AD2DFE800F0050DFD
:108720000D0D0D0D0D0D0D00BDE81040FEF7EEB95D
:1087300000F028F80020A07010BD000044000020C8
:1087400010B50F4C6078411C6170092812D2DFE827
:1087500000F005090D15151515151500BDE810409B
:10876000FCF7C8BEBDE81040FFF734B8BDE81040C4
:10877000FEF724B8FFF7CAFF0020607010BD0000AC
:108780004400002038B51A48C1784A1CC270092933
:108790002AD2DFE801F0050915191D21251414005E
:1087A000BDE83840FEF742B8FDF772FE0446FDF71B
:1087B000A1FE53EC102B0FA0009400F09DF938BDE2
:1087C000BDE83840FEF730BABDE83840FDF7C6BB1B
:1087D000BDE83840FEF756BFBDE83840FFF74AB85D
:1087E000BDE83840FDF7EEBB0021C17038BD000088
:1087F0004400002054656D70203D202566202C200B
:1088000056536C6F6172203D2025640A0000000001
:108810000348012101704168491C41607047000014
:108820004400002010B507A000F066F90A490120B5
:108830004871C103094802F017FABDE81040FFF77C
:1088400021BD0000537461727420436861726765D2
:10885000204D6F64650A00002E00002000040240D5
:1088600010B505A000F048F9084900204871BDE89E
:108870001040FFF7F5BC000053746F70204368612F
:10888000726765204D6F64650A0000002E000020AD
:108890001648016841F4700101601548016841F013
:1088A0000101016001688907FCD5114908310A6896
:1088B00022F003020A600A6812F00C0FFBD1026872
:1088C0000C4B1A40026000200860094A0A49121D38
:1088D00011600749A031086005494FF41F000C31B1
:1088E00008600249500680390860704788ED00E052
:1088F00000380240FFFFF2FE0230030070B5124E56
:108900001021304602F0C8FD00281CD00621304658
:1089100002F0F4FC0D4CA16804F1100505EB4102D6
:10892000491CA16010801021304602F006FDA068AD
:10893000022808D328884FF6FF726988101A401C55
:10894000084480B2E06070BD000C004008000020C8
:10895000F0B51A4A8BB090422DD891422BD850B323
:1089600049B36422B1FBF2F4B1FBF2F302FB13133F
:10897000B4FBF2F542F21076B1FBF6F102FB1544BE
:10898000B0FBF2F7CDB2B0FBF2F102FB1101B7FB85
:10899000F2FCB0FBF6F002FB1C72C0B20395009132
:1089A000CDE901206433641ECDE904436846FBF73A
:1089B0007BFC0BB0F0BD0020FBE700003F420F0046
:1089C00010B5044C2078002803D0FFF7B9FE002032
:1089D000207010BD4400002038B50F4C08212046FF
:1089E00002F0BFFE012803D10821204602F05AFE02
:1089F0002021204602F0B5FE00280CD02021204680
:108A000002F050FE204602F041FE8DF8000069465B
:108A1000024802F05DFA38BD004C0040980000208A
:108A200038B50F4C0821204602F09BFE012803D1E7
:108A30000821204602F036FE2021204602F091FE59
:108A400000280CD02021204602F02CFE204602F007
:108A50001DFE8DF800006946024802F039FA38BD63
:108A6000001001405C00002038B50F4C0821204662
:108A700002F077FE012803D10821204602F012FE01
:108A80002021204602F06DFE00280CD02021204637
:108A900002F008FE204602F0F9FD8DF8000069465C
:108AA000024802F015FA38BD004400407000002072
:108AB00038B50F4C0821204602F053FE012803D19F
:108AC0000821204602F0EEFD2021204602F049FE5A
:108AD00000280CD02021204602F0E4FD204602F0C0
:108AE000D5FD8DF800006946024802F0F1F938BD65
:108AF00000480040840000200FB4054B10B503A9C6
:108B0000044A029800F09EFF10BC5DF814FB0000C0
:108B100041AC0008040000200FB4084B10B504A9B4
:108B200002AA039800F08EFF044602A9002001F07B
:108B300020FB204610BC5DF814FB000073A1000868
:108B400003B401984100009850EAC12018BF0420E6
:108B50004A0D18BF40F0010040F2FF72B2EB515FC6
:108B600008BF40F00200012808BF052002B070478E
:108B700070B5C1482DED020B2DED0E8B82B0119D0D
:108B800025F000449FEDBEDB9FEDBFEB84423EDB52
:108B9000A4F140511098A1F17F6108430FD0BC4867
:108BA000844202DC28D1109830B39DED100B02B046
:108BB000BDEC0E8B02B0BDE8704000F031BE9DED03
:108BC000100B53EC1D2B51EC100BFBF762FD9DEDD0
:108BD000100B41EC180B53EC1E2B51EC100BFBF758
:108BE00058FD53EC182BFBF7ADFC41EC100B02B019
:108BF000BDEC0E8B02B070BD012000F053FE02B040
:108C0000BDEC0E8B02B0BDE8704000F015BEA1486F
:108C10009FEDA18B844256DA9DED100BB4F1795F84
:108C20000ADA51EC100BFFF78BFF042808BF00F0A5
:108C300013FE9DED100BDAE753EC102B51EC100BEB
:108C4000FBF727FD41EC190B95480621B0EE490AC8
:108C5000F0EE690A784400F0CFFC53EC192B51EC8C
:108C6000100BFBF716FD41EC1A0B8E48B0EE490ACB
:108C7000F0EE690A0421784400F0BEFC53EC192B95
:108C800051EC100BFBF705FD53EC182BFBF75AFCCE
:108C900041EC100B51EC1A0B53EC102BFBF76BFD56
:108CA000CDE900019DED000B53EC102B9DED100B59
:108CB00051EC100BFBF7EDFC9DED101B53EC112B51
:108CC000FBF740FCD2E09DED100B51EC100B01F0D6
:108CD000EDFE53EC182BFBF7D9FC9FED730BCDE9A0
:108CE000000153EC102B9DED000B51EC100BFBF72A
:108CF000D0FC41EC190B6E480621B0EE490AF0EEAB
:108D0000690A784400F078FC53EC192B51EC100BF5
:108D1000FBF7BFFC41EC1B0B6648B0EE490AF0EED6
:108D2000690A0421784400F067FC53EC192B51ECDC
:108D3000100BFBF7AEFC53EC182BFBF703FC41ECDC
:108D40001C0B51EC190B02F047FA41EC180B5A4876
:108D50009FED5BABA04222DC53EC1C2B51EC1B0BB8
:108D6000FBF709FDCDE900019DED000B51EC180B5F
:108D700053EC102BFBF78DFC53EC182BFBF7E2FBAD
:108D800053EC1A2BFBF785FC53EC1D2BFBF77BFCFC
:108D900053EC1E2BFBF77AFC41EC100B5FE08DEDE2
:108DA000008B002000909DED000B51EC180B53EC54
:108DB000102BFBF7C7FB9DED000B41EC1E0B53EC9A
:108DC000102B51EC100BFBF764FC53EC192BFBF749
:108DD0005DFC53EC1E2BFBF7CEFC41EC190B53EC66
:108DE0001C2B51EC1B0BFBF7C6FC41EC1B0B53EC93
:108DF0001A2B51EC190BFBF74CFC53EC1D2BFBF71A
:108E000045FC41EC190B53EC1A2B51EC180BFBF7FA
:108E100040FC53EC1B2BFBF73CFC53EC192BFBF7F2
:108E200032FC9DED000B41EC180B53EC1A2B51EC6E
:108E3000100BFBF72EFC9FED249B53EC192BFBF73B
:108E400025FC41EC100B51EC180B53EC102BFBF7ED
:108E50001AFC53EC192BFBF719FC41EC100B002DFD
:108E60003FF7C5AE51EC100B81F0004141EC100B07
:108E7000BDE60000000000000000F03F0000000020
:108E8000075C143326A6913C182D4454FB21F93F6E
:108E90000000F07F0000E03F000000000000F03F15
:108EA000082D0000162D0000000000000000E03F2B
:108EB0005A2C0000682C00003333EF3F0000000004
:108EC0000000000000000040182D4454FB21E93F41
:108ED00030B583B0044600F0CFFC9FED090B05468A
:108EE0008DED000B002221466846FBF724FE284644
:108EF00000F0D8FC9DED000B03B030BD0000000079
:108F0000000000000000000010B52F499FED2C1B51
:108F10002DED020B84B0059820F000408842D8BFA8
:108F20009DED040B2DDD2949884209D1049840B9F3
:108F30004FF0010000F0B6FC00F07EFC06B010BD62
:108F400005DB9DED040B00F06BFC06B010BD684620
:108F50009DED040B00F07CF810F0030004BF9DEDC4
:108F6000021B9DED000B0CD001280ED09DED021BC5
:108F70009DED000B022817D0012000F0B9FB06B0D0
:108F800010BD00F081FA06B010BD9DED021B9DEDF5
:108F9000000B012000F0ACFB51EC100B81F0004104
:108FA00006B041EC100B10BD00F06EFA51EC100B46
:108FB00081F0004106B041EC100B10BD0000000034
:108FC0000000000000000000FB21E93F0000F07FEE
:108FD00000B52DED048BB0EE409AF0EE609A83B0B0
:108FE00051EC190BFBF76EFE41EC180B18EE100A52
:108FF00018EE901A8DED008B002818BF0120084351
:1090000020F00040C0F17F6000F1E040C00F14D0BC
:1090100019EE101A19EE900A8DED009B002918BF69
:109020000121084320F00040C0F17F6000F1E040E2
:10903000C00F04BF012000F035FCB0EE480A03B0B9
:10904000F0EE680ABDEC048B00BD000000000000DB
:109050002DE9F14F04462DED020B2DED088B8AB062
:109060009FEDE70B80ED020B139EE74826F00045CD
:1090700085420ADC9DED120B002084ED000B0AB046
:10908000BDEC088B03B0BDE8F08FE0489FEDE0AB8E
:109090009FEDE1BBA84247DDE14F9FEDE39B9FEDD4
:1090A000E48B9DED120B53EC1A2B51EC100B002EA0
:1090B0001CDDFBF7E8FA41EC100BBD4208D053EC85
:1090C0001B2B51EC100BFBF7DEFAC4E900010BE09F
:1090D00053EC192B51EC100BFBF7D5FA53EC182B72
:1090E000FBF7D1FAC4E900010120C8E7FBF72AFA2F
:1090F00041EC100BBD4208D053EC1B2B51EC100B74
:10910000FBF720FAC4E900010BE053EC192B51ECFA
:10911000100BFBF717FA53EC182BFBF713FAC4E903
:1091200000014FF0FF30AAE7C348A84279DB9DED6C
:10913000120B51EC100B01F0B9FC41EC180B9FED38
:10914000C00B53EC102BFBF7A4FA9FEDBF1B53ECA5
:10915000112BFBF7F7F9FCF78EF90746FCF77AF9C4
:1091600041EC190B53EC1A2BFBF793FA53EC182B29
:10917000FBF78CFA41EC180B53EC1B2B51EC190B41
:10918000FBF787FADFF8C8A241EC100B4FEA15583D
:109190000125FA4453EC102B51EC180BFBF773FA32
:1091A000032DC4E900013DD0C1F30A5005EB451180
:1091B000A8EB00001139814234DA0AEB051BB0EE4E
:1091C00048AA9BED000BF0EE68AA53EC102B51EC73
:1091D000190BFBF75EFA41EC1B0B51EC1A0B53EC2D
:1091E0001B2BFBF750FA41EC180B51EC1A0B53EC0C
:1091F000182BFBF748FA53EC1B2BFBF744FA9BEDBB
:10920000020B41EC1A0B53EC102B51EC190BFBF732
:1092100040FA53EC1A2BFBF736FA41EC100B6D1C9D
:10922000B8E70EE0002EA8BF3846BFF628AF94ED91
:10923000000B51EC100B81F00041C4E900017842B1
:109240001DE7C6F3130040F4801EC6F30A50A0F2D7
:10925000F530471100F01F05C5F12000DDF848B0DA
:1092600008900020069007900520EC467949002DD3
:1092700007EB0002794408BF51F8221009D051F8D9
:10928000223001EB8201AB404A68089922FA01F1D1
:109290001943A1FB0E26A1FB0B131A449A4234BFBB
:1092A0000123002303EB06080CEB8003D3E901A69E
:1092B0000E448E4234BF0121002192448A4411B1F0
:1092C000924502D903E0924501D2012100E000213C
:1092D000C3E901A641444CF82010011EA0F1010091
:1092E000C4DC029800F10050850F0298DDE90367A5
:1092F0008000DDF81480FCF7ADF841EC1A0B304625
:10930000FBF7A8FA9FED541B53EC112BFBF7C1F9A7
:1093100041EC1B0B3846FBF79DFA9FED511B53ECBC
:10932000112BFBF7B6F941EC180B4046FBF792FA0C
:109330009FED4D1B53EC112BFBF7ABF941EC190BD7
:1093400051EC180B53EC192BFBF7FCF853EC1B2BCF
:10935000FBF7F8F853EC1A2BFBF7F4F8CDE908010A
:10936000002008909DED080B53EC1A2B51EC100BCC
:10937000FBF789F953EC1B2BFBF785F953EC182B02
:10938000FBF781F953EC192BFBF780F99FED381BA4
:1093900053EC112BFBF77DF99FED370B41EC180BCC
:1093A00053EC102B9DED080B51EC100BFBF771F9F2
:1093B00053EC182BFBF7C6F89FED310B41EC180B63
:1093C00053EC102B9DED080B51EC100BFBF761F9E2
:1093D00053EC182BFBF7B6F841EC100B139810F078
:1093E000004F06D06D4251EC100B81F0004141EC72
:1093F000100B284684ED000B41E600000000000041
:109400000000000000000000FB21E93F7CD9024081
:1094100000004054FB21F93F3163621A61B4D03D32
:10942000FB21F93F000000000000601A61B4D03D4C
:109430007370032E8A19A33BFB2139410000000001
:1094400083C8C96D305FE43F000000000000E03FCA
:109450005A280000A8270000000000000000103E6D
:10946000000000000000103C000000000000103A66
:10947000182D4454FB21F93D3326A611460B113C0F
:1094800000000054FB21F93D10B52DED040B2DED2E
:10949000088B82B0B0EE419AF0EE619A0B9820F002
:1094A00000449FED4BABB4F1795F11DA9DED0A0BEF
:1094B00051EC100BFBF7DFFF002801BFB0EE4A0AAA
:1094C000F0EE6A0A02B0BDEC088B04BF04B010BD18
:1094D0009DED0A0B53EC102B51EC100BFBF7D9F858
:1094E00041EC180B3C480621B0EE480AF0EE680A41
:1094F000784400F081F853EC182B51EC100BFBF77B
:10950000C8F89DED0A0B41EC1B0B53EC192B51ECE9
:10951000100BFBF7BEF841EC190B53EC1B2B51EC75
:10952000180BFBF7B6F853EC192BFBF7ACF89FEDD3
:109530002C0B41EC190B53EC102B51EC180BFBF7D7
:10954000A8F841EC100B2848844210DA53EC192B90
:1095500051EC100BFBF797F853EC1A2BFBF796F82E
:1095600041EC100B02B0BDEC088B04B010BD1F48DD
:10957000A042BCBF9FED1E1B8DED001B06DBA4F5BA
:1095800000100190002000909DED001B51EC100B8D
:1095900053EC112BFBF777F89DED000B41EC180B0A
:1095A00053EC102B51EC1A0BFBF76DF841EC1A0B36
:1095B00053EC192B51EC180BFBF765F853EC1A2BF5
:1095C000FBF764F841EC100BCCE700000000000052
:1095D000000000000000F03FCC240000000000006C
:1095E000000000000000E03F3333D33F0000E93FBC
:1095F000000000000000D23F70B504462DED028B44
:109600004D1E00EBC500B0EE408AF0EE608A90ED92
:10961000000B35F0060017D053EC182B51EC100B53
:10962000FBF737F841EC100B6D1E04EBC50090ED15
:10963000001B51EC100B53EC112BFAF783FF41EC9C
:10964000100B35F00600E7D1022D36D0042D1CD0CA
:10965000062D1CBFBDEC028B70BD53EC182B51ECDA
:10966000100BFBF716F894ED0A1B53EC112BFAF7CD
:1096700069FF53EC182BFBF70CF894ED081B53EC27
:10968000112BFAF75FFF41EC100B53EC182B51EC48
:10969000100BFAF7FEFF94ED061B53EC112BFAF7B3
:1096A00051FF53EC182BFAF7F4FF94ED040B53EC35
:1096B000102BFAF747FF41EC100B53EC182B51EC31
:1096C000100BFAF7E6FF94ED021B53EC112BFAF79F
:1096D00039FF53EC182BFAF7DCFF94ED001B53EC29
:1096E000112BFAF72FFFBDEC028B41EC100B70BD74
:1096F00031B504462DED040B2DED0A8BB0EE41BAC9
:10970000F0EE61BA0B989DED0A0B20F00040B0F12D
:10971000795F0DDA51EC100BFFF712FA042808BF3D
:1097200000F09AF89DED0A0BBDEC0A8B05B030BD38
:1097300053EC102B51EC100BFAF7ABFF41EC180B6C
:109740009DED0A0B53EC182B51EC100BFAF7A1FF0F
:1097500041EC190B2C48B0EE480AF0EE680A0521DE
:109760007844FFF749FF9FED2ACBB0EE40AAF0EE18
:1097700060AA9CB353EC1C2B51EC190BFAF789FF30
:1097800041EC1C0B53EC1A2B51EC190BFAF781FF2F
:109790009FED210B41EC190B53EC102B51EC1B0BE3
:1097A000FAF777FF53EC192BFAF76DFF53EC182BF0
:1097B000FAF76FFF53EC1B2BFAF765FF53EC1C2BEA
:1097C000FAF761FF9DED0A1B53EC112BFAF75EFFD0
:1097D000BDEC0A8B05B041EC100B30BDFFE753EC3C
:1097E0001A2B51EC180BFAF754FF53EC1C2BFAF719
:1097F000A9FE53EC192BFAF74CFF9DED0A1B53EC15
:10980000112BFAF79FFEE3E754230000000000004D
:10981000495555555555C5BF000000000000E03FB3
:1098200010B553EC102B51EC100BFAF78BFE41ECFA
:10983000100B10BD000000009FED050B10B553ECA0
:10984000102B51EC100BFAF796FF41EC100B10BDEA
:1098500000000000000000009FED050B10B553EC68
:10986000102B51EC100BFAF714FF41EC100B10BD4C
:109870000000000000000010014800687047000070
:109880004C00002002E008C8121F08C1002AFAD1CB
:1098900070477047002001E001C1121F002AFBD170
:1098A0007047000001490860704700004C0000202C
:1098B0002DE9FF5F82B00021DDE90430020DDDF803
:1098C00040B0034318D044F61050A2F2FF32424396
:1098D0001514119801281FD0A5EB0B00401C5FEA5E
:1098E000000A4FF000064E4FDFF83891B046504660
:1098F00015D5CAF1000413E0119801244AA30128E8
:1099000001D16FEA0B010298119AC0E90031C0E958
:10991000024206B0BDE8F09FCBF10000DFE704464D
:109920000021404A491842EB0450CDE9001012E0F2
:10993000E00707D032463B4640464946FAF7A9FEC3
:109940008046894632463B4610461946FAF7A1FE44
:1099500006460F466410002CEAD1DDE90401DDE97A
:109960000023BAF1000F06DAFAF793FE42464B469F
:10997000FAF78FFE05E0FAF7FEFE42464B46FAF78D
:10998000FAFE04460E460022284BFAF7B5FF03D82C
:109990004FF0FF30014607E00022254B20463146BC
:1099A000FAF7D0FDFBF7DFF9102409E0002C0ADB01
:1099B0000A220023FAF746FC039B30321A55641E34
:1099C00050EA0102F2D1641C039AC4F11103144459
:1099D000119A012A03D0012208430DD10AE008435D
:1099E00004D000204FF0110B119072E7A3EB0B0590
:1099F0006D1E0DE05B4504DD4FF0000205F1010531
:109A000004E003DA4FF00002A5F10105002AECD0D2
:109A100002981199C0E90231C0E9004579E70000D8
:109A2000000014400000F03F300000000000F04350
:109A30000000E03F30380A2801D2012070470020A2
:109A4000704700002DE9FF4F95B09B4689460646BA
:109A500000250FE2252877D100242746F84A012166
:109A6000059400E0044316F8013F203B01FA03F09F
:109A70001042F7D130782A2811D06FF02F033078B8
:109A8000A0F13002092A16D8059A44F0020402EB2C
:109A9000820203EB42021044761C0590EFE759F86E
:109AA000042B0592002A03DA504244F40054059036
:109AB00044F00204761C30782E2816D116F8010FD7
:109AC00044F004042A280DD06FF02F023078A0F162
:109AD0003003092B09D807EB870302EB4303C718B0
