:020000040800F2
:10400000483C0020E1420008876A0008596900081E
:10401000856A0008995F0008FD6D00080000000037
:104020000000000000000000000000002142000825
:104030009B5F0008000000007D420008416B000803
:10404000FB420008FB420008FB420008FB4200085C
:10405000FB420008FB420008BF5F0008D75F000872
:10406000FB420008FB420008FB420008FB4200083C
:10407000FB420008FB420008FB420008FB4200082C
:10408000FB420008FB420008FB420008FB4200081C
:10409000FB420008FB420008FB420008EF5F0008FB
:1040A000FB420008FB420008FB420008FB420008FC
:1040B000FB420008FB420008FB420008FB420008EC
:1040C000FB420008FB420008FB420008FB420008DC
:1040D000FB420008256D00086D6D0008B56D0008F5
:1040E000FB4200089D5F0008FB420008FB420008FD
:1040F000FB420008FB420008FB420008FB420008AC
:10410000FB420008FB420008196C0008FB42000853
:10411000DD6C0008FB420008FB420008FB4200087F
:10412000FB420008FB420008FB420008FB4200087B
:10413000FB420008FB420008FB420008FB4200086B
:10414000FB420008FB420008FB420008FB4200085B
:10415000FB420008FB42000800000000FB42000890
:10416000FB420008FB4200080000000000000000C5
:10417000FB420008FB420008FB4200080000000070
:1041800000000000FB420008FB420008FB42000860
:10419000FB420008000000000000000000000000DA
:1041A000000000000000000000000000FB420008CA
:1041B000FB42000800000000FB4200080000000075
:1041C00000000000000000000000000000000000EF
:1041D0000000000000000000FB420008FB42000855
:1041E000FB420008FB420008FB420008FB420008BB
:1041F000FB420008FB420008FB420008FB420008AB
:10420000FB420008FB420008FB420008DFF80CD02C
:1042100000F070FC00480047C5810008483C0020C1
:104220002C4B19680868B0E8F04F80F30988BFF399
:104230006F8F4FF0000080F311887047000000007E
:1042400008480068006880F308884FF0000080F399
:10425000148862B661B6BFF34F8FBFF36F8F00DF74
:1042600000BF00BF08ED00E0DFF80C00016841F47A
:1042700070010160704700BF88ED00E0EFF3098036
:10428000BFF36F8F134B1A681EF0100F08BF20ED9D
:10429000108A20E9F04F106009B44FF0100080F34D
:1042A0001188BFF34F8FBFF36F8F05F079F84FF090
:1042B000000080F3118809BC19680868B0E8F04F65
:1042C0001EF0100F08BFB0EC108A80F30988BFF30E
:1042D0006F8F704768000020EFF305807047000083
:1042E0000648804706480047FEE7FEE7FEE7FEE790
:1042F000FEE7FEE7FEE7FEE7FEE7FEE7AD6B000840
:104300000D4200082DE9F05F0546002092469B46CD
:1043100088460646814640241BE0284641464746DB
:10432000224600F0D2FA53465A46C01A914110D3A1
:1043300011461846224600F0B9FA2D1A67EB01081B
:104340004F4622460120002100F0B0FA17EB000989
:104350004E41201EA4F10104DFDC484631462A46C6
:104360004346BDE8F09F000038B5D0E90221491E60
:1043700001EB410102EBC1014268C1EB011102EB0B
:1043800081010268C1EB011102EB8102D0E9043125
:1043900001EB410103EB81013023A1F5527191FB47
:1043A000F3F4174D6C4302EBC41291FBF3F403FBDF
:1043B000141100921A2902DB124B1A4400920C22AB
:1043C00091FBF2F3104C6343009C04EBC313009386
:1043D00091FBF2F302FB13110C4A08E0491E40F274
:1043E000A324535C6343009C04EBC3130093002994
:1043F000F4DC0146684600F08BFA009838BD0000F6
:104400003F0C0F008051010067C20300DC970008D9
:1044100040EA01039B0703D009E008C9121F08C046
:10442000042AFAD203E011F8013B00F8013B521EC6
:10443000F9D27047D2B201E000F8012B491EFBD23D
:1044400070470022F6E710B513460A46044619469F
:10445000FFF7F0FF204610BD421C10F8011B002999
:10446000FBD1801A70472DE9FE4F804681EA030098
:10447000C00F0C46009021F0004123F00045B8EB3E
:104480000200A94105D24046214690461C460B46F3
:10449000024623F00040104347D0270DC7F30A001F
:1044A000C3F30A510290401A019040286BDAC3F31B
:1044B000130040F4801B0098924620B10023D2EBF9
:1044C000030A63EB0B0B01985946C0F140025046BA
:1044D00000F0ECF906460D4650465946019A00F0A8
:1044E00004FA10EB08006141002487EA115284EAC3
:1044F000E7731A4340D0009A62B3019A012A4FEA47
:10450000075215DC001B61EB02014FF0004202EA8A
:104510000752CDE90042001C41F5801132462B467E
:1045200000F082FA03B0BDE8F08F40462146F9E77B
:10453000001B61EB0201001C41F5801300185B4178
:104540002018A2F5001747EB030140EAD570B61911
:104550006D4111E06D084FEA360645EAC0754FEA35
:104560000752001B61EB0201001C41F58011490854
:104570004FEA30000019514132462B4603B0BDE8E6
:10458000F04F00F042BA0098012240000023D0EB27
:10459000020263EBE073009821464FEAE074B8EB47
:1045A000000061EB0401E9E783F000435BE781F081
:1045B000004158E72DE9FE4F81EA030404F000446E
:1045C00021F0004100944FF0000B23F0004350EA2B
:1045D00001045ED052EA03045BD0C3F30A54C1F372
:1045E0000A552C44A4F2F3340194A0FB0254C1F305
:1045F000130141F48011C3F3130343F4801301FB4F
:10460000024400FB034E840A970A44EA815447EAB5
:104610008357A4FB076802958D0A05FB07854FEABF
:10462000932C04FB0C542705029D4FEA065847EAD9
:104630001637B5EB08056EEB070C870E920E47EAAE
:10464000811742EA8312A7FB0201B6EB0B0164EB70
:1046500000042B0D43EA0C335E1844EB1C50DA4681
:104660005146E7FB0201C5F313044FEA0B3343EA5B
:1046700014534FEA0432019C43EA0603A4F10C04EC
:104680000294009CCDE900B400F0CEF903B0BDE87F
:10469000F08F00200146F9E72DE9F04D81EA03048F
:1046A00004F0004B21F0004514464FF0000A23F0BF
:1046B000004150EA050220D054EA01021DD0C5F3A2
:1046C0000A570246C5F31303C1F31300C1F30A5698
:1046D00040F4801543F48013A7EB0608101BD64660
:1046E00008F2FD3873EB050002D308F1010801E080
:1046F00092185B41B8F1000F03DA00200146BDE8D3
:10470000F08D00204FF48011064684460EE0171B02
:1047100073EB050705D3121B63EB050306434CEA55
:10472000010C49084FEA300092185B4150EA01073A
:10473000EDD152EA030012D082EA040083EA0501B7
:10474000084305D0101BAB4106D20122002306E02E
:1047500000224FF0004302E06FF0010253101AEB09
:1047600006004CEB085110EB0A0041EB0B01BDE8D1
:10477000F04D00F04AB90EB540F2334102910021EC
:10478000CDE900110A460B4600F04EF903B000BD1A
:10479000C1F30A5210B5C1F3130140F2FF3341F4E3
:1047A00080119A4201DA002010BD40F233439A4250
:1047B000A2F2334203DC524200F087F810BD904071
:1047C00010BD00F0004230F000400AD0C10D01F5EC
:1047D0006071C0F3160042EA0151C208400711435C
:1047E000704700200146704730B5041E71F1000487
:1047F00004DB4FF00044404264EB0101141E73F1EE
:10480000000405DB1C464FF00043524263EB0403F7
:104810008B4208BF824230BD30B5041E71F10004E6
:1048200004DB4FF00044404264EB0101141E73F1BD
:10483000000405DB1C464FF00043524263EB0403C7
:10484000994208BF904230BD01F0004330B421F0DE
:10485000004150EA010206D00A0DA2F56072C1F3D0
:104860001301002A02DC30BC00207047440F44EAE8
:10487000C104C100E01830BC00EBC25000F08EB89B
:1048800030B50B46014600202022012409E021FA20
:1048900002F59D4205D303FA02F5491B04FA02F51D
:1048A0002844151EA2F10102F1DC30BD202A04DBF0
:1048B000203A00FA02F1002070479140C2F1200333
:1048C00020FA03F3194390407047202A04DB203A72
:1048D00021FA02F00021704721FA02F3D040C2F120
:1048E00020029140084319467047202A06DBCB1767
:1048F000203A41FA02F043EAE07306E041FA02F39B
:10490000D040C2F120029140084319467047000090
:1049100010B500683C22B0FBF2F302FB1303B0FBBE
:10492000F2F00B60B0FBF2F302FB1303B0FBF2F00A
:1049300018224B60B0FBF2F302FB1303B0FBF2F062
:10494000021D8B600723B2FBF3F403FB14228000EB
:1049500040F2B55300F66C308A61B0FBF3F2B0FB65
:10496000F3F403FB1400443280084A61C8613B2819
:1049700002D3920700D0401C0022074C13460A6164
:10498000E25C824203D8801A5B1C0B61F8E7401C92
:10499000C860084610BD0000E89700080029A8BFBD
:1049A0007047401C490008BF20F00100704710B458
:1049B000B0FA80FC00FA0CF050EA010404BF10BC0D
:1049C000704749B1CCF1200421FA04F411FA0CF13A
:1049D00018BF012121430843A3EB0C01CB1D4FEA73
:1049E00000614FEA102042BF002010BC704700EB6E
:1049F000C35010440029A4BF10BC7047401C49009C
:104A000008BF20F0010010BC704710B5141E73F1F0
:104A1000000408DA401C41F1000192185B411A437E
:104A200001D120F0010010BD2DE9F04D92469B46CA
:104A300011B1B1FA81F202E0B0FA80F22032904670
:104A4000FFF734FF04460F4640EA0A0041EA0B0133
:104A500053465A46084313D0114653EA010019D071
:104A6000C8F140025046FFF730FF05460E4650465B
:104A700059464246FFF71AFF084305D0012004E0DB
:104A800020463946BDE8F08D0020054346EAE07631
:104A90002C4337430A986305E40AA0EB0800002280
:104AA000FD0A44EA47540A3002D500200146E9E7EE
:104AB000010510196941DDE9084500196941BDE8A2
:104AC000F04DA2E7C1F30A52C1F3130140F2FF33E4
:104AD00041F480119A4202DA00200146704740F208
:104AE00033439A42A2F2334202DC5242FFF7EDBE58
:104AF000FFF7DCBE064C074D06E0E06840F001031E
:104B000094E8070098471034AC42F6D3FFF782FBD5
:104B10003C9A00085C9A000870B518480179407901
:104B200001431AD0164C607A38B1012808D0022807
:104B300014D0002503281ED113E001F0E9FC09E0A0
:104B400001F086FB0E4B206062890833211D00F0C6
:104B5000CFF86081607A401C607270BD01F0E8FCA3
:104B6000F8E701F07BFB064B20601033628A191FC7
:104B700000F0BEF86082657270BD00003000002059
:104B80000009002002460020521C04E012F8013BFC
:104B90005840491E89B20029F8D1704770B50E46B9
:104BA0002DED028BB0EE408AF0EE608A040019D041
:104BB00051EC180B9FED3B0B53EC102BFFF714FE41
:104BC00010D3022E02D0032E03D00BE09FED370B43
:104BD00001E09FED380B51EC180B53EC102BFFF755
:104BE0001BFE03D20120BDEC028B70BD06F1080153
:104BF0002046FFF726FC51EC180BFFF7C9FD0546D0
:104C0000FFF7B9FD53EC182BFFF7D1FC9FED2B1BE1
:104C100053EC112BFFF7CEFCFFF7BAFD2E210A2231
:104C2000022E02D0032E1AD03AE0B5FBF2F3303355
:104C30002370B5FBF2F302FB135330336370A170A2
:104C40005FF00901B0FBF2F302FB1303B0FBF2F0DB
:104C500030336354491EC9B20229F3D820E06426D8
:104C6000B5FBF6F330332370B5FBF6F306FB1353B5
:104C7000B3FBF2F330336370B5FBF2F302FB135373
:104C80003033A370E1700A21B0FBF2F302FB13038F
:104C9000B0FBF2F030336354491EC9B20329F3D894
:104CA0000020A0E70000000000000000000000005D
:104CB00000805640000000000080664000000000B8
:104CC000D012634108B500F00F028DF801200009F1
:104CD0008DF8000000206B461A5C0A2A01D230329F
:104CE00000E037320A54401CC0B20228F4D308BD99
:104CF00070B5064618780024052505280FD2401CFB
:104D000018700868304408601E78052E01D01046DF
:104D100070BDB0FBF5F00C6080B21C7070BD08680F
:104D2000F7E74FF47A7401F069F8204604F0D6FAF8
:104D3000F9E74FF47A7400F043FB204604F0CEFA12
:104D4000F9E7000002490120487101F08BB9000029
:104D5000300000200348002101228171027141715D
:104D600001F080B9300000202DE9F04F2DED048BCB
:104D7000B3B09FEDFD8BFEA10025D1E90001CDE987
:104D80003001FDA0782100683290FCA000680495F5
:104D90000595099527952895CDE92C050695079544
:104DA0000895249525952695299510951195129588
:104DB00013951495F24815951695179518950A951B
:104DC0000B950C950D950E9581460F95FFF739FBC8
:104DD000EB48F0217830FFF734FBE94C163C657561
:104DE00000F074FB2B9000F09BFB10EE107A00F0AB
:104DF000B3FBB0EE409AF0EE609A1AA800F06CFB9C
:104E00004FF0440A4FF0310B40B100F09FFB0328F4
:104E10007DD000F09BFB0428FAD0B7E29DED1E0B7D
:104E2000032184ED620B9DED1C0B84ED600B20983B
:104E3000C4F890012198C4F8940104A8FFF7AEFECD
:104E4000012865D09DED1E0B022107A8FFF7A6FEE5
:104E500001285DD0DDE9200101F008FF0546229818
:104E6000FFF7AFFC41EC100B13A800F0EBFA06467D
:104E70002398FFF7A6FC41EC100B16A800F0E2FA0D
:104E8000804653EC182B51EC190BFFF7C5FC07D2E9
:104E9000B0EE490AF0EE690A0DA800F0D3FA0290CC
:104EA0003846FFF78EFC41EC100B0AA800F0CAFA56
:104EB000002DB2D0002EB0DBB8F1000FADDB0A221E
:104EC000294624A801F0AAF8012821D00A2227A8FF
:104ED000A16801F0A3F801281AD0227D10A8216949
:104EE00001F09CF8012813D002222DA82B9901F083
:104EF00095F801280CD09DED1C0B53EC182B51ECB0
:104F0000100BFFF771FC88D09DED1E0B01E0F2E065
:104F100037E253EC182B51EC100BFFF765FCC8D0AF
:104F200030A8FFF799FA0246484630A9FFF770FA11
:104F300030A8FFF791FAC5B232A8FFF78DFA024602
:104F4000601932A91630FFF763FA32A8FFF784FA26
:104F50002844C0B22118279A41F8162F289A4A608F
:104F6000BDF8A4200A300A81C0B22118401C2C25AB
:104F7000C7B28D752CA8FFF76FFAE31902462CA96A
:104F800003F11600FFF744FA2CA8FFF765FA38443E
:104F9000C7B2E019227D10A91630FFF739FA207D3B
:104FA0003844C0B22118401C8D75C7B200F0CEFA4B
:104FB00002287DD000F0CAFA03287AD000F0C6FAA1
:104FC000042876D04120E11988757F1CF8B2211899
:104FD000401C8D75C7B2E0190DA91630029AFFF773
:104FE00017FA02983844C0B22118401CC0B22218E7
:104FF0008D75401C82F816B0C0B22218401C957501
:10500000C0B22218401CC0B2211882F816B08D75AB
:10501000401CC0B22118249A41F8162F259A4A60E4
:10502000BDF898200A300A81C0B22118401C8D7545
:10503000C0B22118049A41F8162F059A4A60BDF8AB
:1050400018200A819DF81A200B308A72C0B22118EC
:10505000401CC0B222188D754521401C9175C0B20C
:105060002118401C8D75C0B22118079A41F8162FDF
:10507000089A4A60BDF824200A300A81C0B221187B
:10508000401C8D75C0B24E212218401C9175C0B2D3
:105090002118401CC7B28D75E019424616A916307A
:1050A000FFF7B6F907EB0800C0B221188D7501E0D3
:1050B0001BE01CE0401CC7B2E019324613A91630B1
:1050C000FFF7A6F9B819C0B22118401C8D75C0B2FF
:1050D0002118BDF82820CA82C01C9DF82A20C0B221
:1050E0000A7678287ED260754AE143206BE7E119A1
:1050F00081F816A069E7A04694ED600B032104A88F
:10510000FFF74CFD94ED620B022107A8FFF746FD67
:10511000D4E9640101F0AAFD0090B0EE480AF0EE77
:10512000680A13A800F08EF90446B0EE480AF0EEC3
:10513000680A16A800F086F90646B0EE490AF0EEB5
:10514000690A0DA800F07EF902903846FFF739FB96
:1051500041EC100B0AA800F075F9002C00DA0024CD
:10516000002E00DA00260DE0000000000000000024
:105170004D424130352C000030312C00422C0000D3
:105180004E0D00200A2224A8009900F047FF0128B4
:1051900002D124952595269547460A2227A8D8F8B6
:1051A000081000F03BFF012802D12795289529958A
:1051B0003A7D10A8396900F031FF02222DA82B9901
:1051C00000F02CFF30A8FFF747F90246484630A907
:1051D000FFF71EF930A8FFF73FF9C5B232A8FFF775
:1051E0003BF900E0D2E07B19024632A903F1160038
:1051F000FFF70EF932A8FFF72FF92844C0B239188B
:10520000279A41F8162F289A4A60BDF8A4200A3040
:105210000A81C0B23918401C2C2500F0FF088D759A
:105220002CA8FFF719F9024607EB08002CA9163045
:10523000FFF7EEF82CA8FFF70FF9404400F0FF0845
:1052400007EB08003A7D10A91630FFF7E1F8397D29
:1052500001EB0800C0B23918401CC0B23A188D7575
:10526000401CC0B2391882F816A0401C8D7500F0A1
:10527000FF0807EB08000DA91630029AFFF7C8F8DF
:10528000029908EB0100C0B23918401CC0B23A18AC
:105290008D75401C82F816B0C0B23A18401C957546
:1052A000C0B23A18401CC0B2391882F816B08D75D9
:1052B000401CC0B23918249A41F8162F259A4A602A
:1052C000BDF898200A300A81C0B23918401C8D758B
:1052D000C0B23918049A41F8162F059A4A60BDF8F1
:1052E00018200A819DF81A200B308A72C0B2391832
:1052F000401CC0B23A188D754521401C9175C0B252
:105300003918401C8D75C0B23918079A41F8162F0C
:10531000089A4A60BDF824200A300A81C0B23918C0
:10532000401C8D75C0B24E213A18401C9175C0B218
:105330003918401C00F0FF088D7507EB0800324655
:1053400016A91630FFF764F808EB0600C0B239184A
:10535000401CC6B28D75B819224613A91630FFF746
:1053600057F83019C0B23918401C8D75C0B23918C1
:10537000BDF82820CA829DF82A200A76C01C7875BC
:10538000002033B0BDEC048BBDE8F08F0120F8E7BE
:1053900070B50A4C617D71B104F18E024B00154667
:1053A000A2F1780002F07CFA607D4100284600F00E
:1053B00027FB002070BD012070BD0000380D0020CB
:1053C00070B5184C607801282AD100F07FF8A188C8
:1053D000884225D000F07AF8A080192801D2012453
:1053E0000BE0A0F11901192901D2022405E032389D
:1053F000192801D2032400E00424012501212846B4
:1054000000F0A0FE6D1CEDB2A542F7D9042505E021
:105410000021284600F096FE6D1EEDB2A542F7D899
:1054200070BD00002400002005480078022805D047
:10543000032803D05FF0000000F0EABE0120FBE784
:10544000D400002053EC102B01A101F0F1BC0000AE
:1054500025302E316600000010B500F005F8BDE8DB
:10546000104000F015B80000074810B5002120F8E2
:10547000C81F8170C8210448FEF7E3FFBDE8104053
:10548000C8210248FEF7DDBF18090020B00A00203D
:1054900010B538210B48FEF7D4FF0A483F213830B9
:1054A000FEF7CFFF074828217830FEF7CAFF0548EE
:1054B0002821A030FEF7C5FF03480021018041806C
:1054C000818010BDE80900203800002001480078E4
:1054D00070470000300000200F498B884A889342B3
:1054E00017D08A800D4991ED040B80ED040B91EDEE
:1054F000020B80ED020B91ED080A80ED080A91ED98
:10550000090A80ED090A8A698261C969C1610020BE
:10551000704701207047000038000020600A00201A
:10552000074810B5408AFFF726F99FED061B53EC9C
:10553000112BFFF73FF8FFF787F900EE100A10BDB7
:1055400000090020ACADD85F764F5E3F014800787F
:1055500070470000D4000020124810B54089FFF7C2
:105560000AF99FED111B53EC112BFFF723F89FED68
:10557000101B53EC112BFFF71DF89FED0F1B53EC85
:10558000112BFFF714F89FED0E1B53EC112BFFF7B7
:1055900083F89FED0D1B53EC112BFEF764FF41ECDC
:1055A000100B10BD000900206666666666660A403C
:1055B000000000000000303F295C8FC2F528F43F56
:1055C00033E197FA795371BF0000000000003940C1
:1055D00001480079704700003000002070B500F0ED
:1055E0005DFE104D0024C8B16878002815D12878D8
:1055F000002812D16888411C6980B0F5967F0CD9CB
:105600000220287041036C80074802F097FC0120BB
:105610006870064804704460447270BD6C802C70E1
:1056200070BD00002400002000040240D4000020CF
:105630002DE9F041FFF78AFF012803D0FFF786FF2D
:10564000022826D1514C002502272079504E4FF4D4
:10565000807807281DD2DFE800F004283641545F27
:1056600073002560206920B100F082FAA1688842A9
:1056700010D00125657300F07BFAA06041463046EA
:1056800002F05AFC8021304602F056FC01F012F97B
:10569000257177E001F0FCF84146304602F04EFCFF
:1056A0008021304602F04AFC68E0607B48B100F09F
:1056B0008FF92068411C21600A2863D92560657331
:1056C000E8E72560E6E7FFF745FB4021304602F0BA
:1056D00035FC00F0D1FF0320256010E02068411C5C
:1056E000216030284ED941463046256002F024FC26
:1056F0008021304602F020FC01F0DCF8042020710B
:1057000040E020680526411C21600A2802D2FFF7EC
:105710002BFBA0BB25600BE020680626401CA0F1F7
:105720000B012060092905D800F048F920B929E0CB
:10573000267127E0142825D92560FFF729FEF7E711
:105740002068401C206002280FD101F0A1F800F071
:1057500081FF4146304602F0F1FB8021304602F0E5
:10576000EDFB4021304602F0E7FBFFF7EFFE022899
:10577000206805D0B0F5077F04D92560277101E0C6
:105780003C28FAD80020BDE8F0810000380D002048
:10579000000802402DE9F041284C2078002816D05E
:1057A000607B274E4FF48077002590B1012823D0ED
:1057B00002280CD102F02CFC3946304602F0BEFB28
:1057C0008021304602F0BAFB01F062F82570BDE896
:1057D000F08165812573257201256570FFF7BAFA9E
:1057E0003946304602F0A8FB8021304602F0A4FB87
:1057F00001F060F86573EAE760780226B0B160896D
:10580000411C61810928E2D96581207B411C2173FB
:10581000032807D9FFF7DCFE0028D8D1257365706F
:10582000656008E0BDE8F04100F0D2B8FFF7D0FEB7
:105830000028CCD165816673C9E7000004170020F9
:10584000000802402DE9F041FFF780FE032803D055
:10585000FFF77CFE04283ED1454C0227454E2079B7
:1058600000254FF4807807287FD2DFE800F0041E7F
:105870003742505664002560206920B100F078F965
:10588000A16888420FD000F073F9A060414630460D
:1058900002F052FB8021304602F04EFB01F00AF884
:1058A0000120607331E0657314E0607BA0B100F00B
:1058B0008FF82068411C21600A2856D9256065733D
:1058C00000F0E6FF4146304602F038FB80213046CA
:1058D00002F034FB277148E02560F1E7FFF73AFA60
:1058E0004021304602F02AFB00F0C6FE032025606E
:1058F0000BE041463046256002F01EFB8021304619
:1059000002F01AFB00F0D6FF042020712DE0FFF713
:105910002BFA05212560217127E020680626401C0E
:105920002060142802D200F049F8F0B12560FFF79A
:105930002FFD267119E02068401C206002280FD13D
:1059400000F0A6FF00F086FE4146304602F0F6FA6F
:105950008021304602F0F2FA4021304602F0ECFAA3
:1059600020686E2801D92560B4E70020BDE8F081E9
:10597000380D00200008024010B500F005F8BDE821
:10598000104000F015B80000084810B5002120F8BC
:10599000C81F8170C8210548FEF753FD0348C82180
:1059A000BDE81040CC30FEF74CBD0000A00B00203D
:1059B00028210148FEF745BD780B0020034890F8E8
:1059C000270008B10020704701207047780B0020A5
:1059D00000B585B0142205A16846FEF719FD102117
:1059E000684603F0E3FA05B000BD000024434349D4
:1059F00043522C302C30302A36380D0A000000007B
:105A00002DE9F0410D4651A18AB00600D1E900010F
:105A100050A2CDE9040107CA8DE8070050A0006834
:105A2000069050A0006807904FA0006808904CA016
:105A3000006809907ED0002D7CD04FF4FA614B486D
:105A4000FEF7FFFC05F11700484C1FFA80F82420F0
:105A5000207004A8FEF700FD0246601C04A9FEF7B2
:105A6000D7FC04A8FEF7F8FC401C87B26846FEF796
:105A7000F3FC0246E0196946FEF7CAFC6846FEF7E9
:105A8000EBFC384487B206A8FEF7E6FC0246E019B4
:105A900006A9FEF7BDFC06A8FEF7DEFC384487B277
:105AA00008A8FEF7D9FC0246E01908A9FEF7B0FCE9
:105AB00008A8FEF7D1FC384487B209A8FEF7CCFC51
:105AC0000246E01909A9FEF7A3FC09A8FEF7C4FCE9
:105AD000384487B2E0192A463146FEF799FC781916
:105AE00080B22C212154401C85B207A8FEF7B4FCDB
:105AF0000246601907A9FEF78BFC07A8FEF7ACFC6D
:105B0000284480B22A212154401C85B241462046B7
:105B1000FFF738F803A9FFF7D5F86019BDF80C10A6
:105B20000180AD1CA8B20D212154401C80B20A2175
:105B3000215400E008E0401C81B2204603F036FA10
:105B400000200AB0BDE8F0810120FAE74343544346
:105B5000512C000031333530303030312C00000012
:105B6000322C000030000000312C0000D00E00204C
:105B7000014800F06BBB000000F80F080D4910B59C
:105B800000200871FFF7F8FEFFF766FC00F062FDE9
:105B900000F07EFE084C4021204602F0CDF9A11510
:105BA000204602F0CBF92046BDE81040802102F0EB
:105BB000C5B90000380D0020000802400D4910B59D
:105BC00000200871FFF7D8FEFFF746FC00F042FD09
:105BD00000F05EFE084C4021204602F0ADF9A11510
:105BE000204602F0ABF92046BDE81040802102F0CB
:105BF000A5B90000380D0020000802400D4910B57D
:105C000000200871FFF7B8FEFFF726FC00F022FD28
:105C100000F03EFE084C4021204602F08DF9A1150F
:105C2000204602F08BF92046BDE81040802102F0AA
:105C300085B90000380D0020000802400D4910B55C
:105C400000200871FFF798FEFFF706FC00F002FD48
:105C500000F01EFE084C4021204602F06DF9A1150F
:105C6000204602F06BF92046BDE81040802102F08A
:105C700065B90000380D00200008024070B53948B1
:105C80004078012827D1384C0125257200F014FBFB
:105C900008B10220207200F0E7FA08B10320207258
:105CA00000F016FB08B1042020722178002005299D
:105CB00011D2DFE801F0032E354E4500217A627AD9
:105CC000914201D061724AE0012926D16068411CED
:105CD000616003282FD870BD6068411C6160032893
:105CE000F9D9BDE8704000F09FBE03292ED160684D
:105CF000411C61600328EED9BDE8704000F07CBE15
:105D00006068411C61600328E5D9BDE8704000F07F
:105D100083BE217A627A9142D4D10229E5D1DBE7B0
:105D2000217A627A9142CDD10129DED16068411C8D
:105D300061601428CFD92570BDE8704000F064BEC2
:105D4000217A627A9142BDD10129EFD00429D7D0BE
:105D500005E0217A627A9142B4D10129E6D06060EF
:105D600070BD000024000020D400002010B503F016
:105D70003DFA02F0BDFC02F0F1FC02F0EDFD02F094
:105D800067FE02F029FE02F0A3FE02F023FD02F0FE
:105D9000DFFE02F05FFD02F09DFD03F0C5FABDE8F5
:105DA000104003F043BA000010B5104B4FF4FA74E2
:105DB00001222146A3F1500002F0E2F90C4B01222E
:105DC0002146A3F50C7002F0DBF90A4B01222146B3
:105DD000A3F5826002F0D4F9074B2146BDE81040DC
:105DE0000122A3F5BE6002F0CBB900003001002013
:105DF00024030020180500200C07002070B5224C59
:105E0000224E254D2DED028B20799FED218BF8B18F
:105E1000A079411CA1710A281AD90020A071207113
:105E20007089FEF7A8FC53EC182BFEF7C3FBFEF7B6
:105E3000AFFC81B2207805E035F810208A4203D308
:105E4000401EC0B20028F7D12070618000F0FAF83F
:105E50006079002814D07089FEF78DFC53EC182B64
:105E6000FEF7A8FBFEF794FC81B2632035F8102002
:105E70008A4203D3401E10F0FF00F7D120706180EA
:105E8000BDEC028B70BD0000300000200009002036
:105E9000666666666666F63F149700082DE9F0416F
:105EA0003C4C607960B101260225012810D00228FF
:105EB00019D0032815D100F0E3F9002868D05FE07D
:105EC00000F012FA00280CD0BDE8F04100F04EBE00
:105ED0006420A07000202080E6702071FEF732FF61
:105EE0006571BDE8F08100F0CBF9032788B101218D
:105EF000084600F027F90121022000F023F90121D2
:105F0000032000F01FF90121042000F01BF9677144
:105F100036E0FFF7DBFAA17888422ED0FFF7D6FAF9
:105F2000A070192801D2E6700CE0A0F1190119291E
:105F300001D2E57006E03238192801D2E77001E09D
:105F40000420E0702179E078814216D0207101258B
:105F500005E00121284600F0F5F86D1CEDB2E0786F
:105F6000A842F6D2042505E00021284600F0EAF810
:105F70006D1EEDB2E078A842F6D3E07800F006F9A5
:105F800000F0B2F90028ACD1BDE8F04100F006BE47
:105F90006571F5E72A000020FEE7704710B54FF461
:105FA0008074204601F0C2FE002807D0204601F090
:105FB00079FE6002BDE8104001F098BF10BD10B539
:105FC000012001F099FF002804D0BDE81040012015
:105FD00001F08CBF10BD10B5022001F08DFF00282C
:105FE00004D0BDE81040022001F080BF10BD10B504
:105FF000202001F081FF002804D0BDE810402020BF
:1060000001F074BF10BD4FF47A74FFF70DFA20460B
:1060100003F064F9F9E7FFF7C7BE000030B50A23C3
:106020000CE000BFB1FBF3F403FB1414B1FBF3F17C
:1060300085183034521E05F8014CD2B2002AF1D135
:10604000002030BD10B50021044801F0DCFBBDE8A4
:1060500010400021024801F0D6BB000000200140A2
:106060000021014030B585B002A801F06EFF032089
:106070008DF80E0010202F4C029002A9204601F04E
:106080006EFF2020029002A9204601F068FF012146
:10609000294801F013FD28480121401C01F00EFDA4
:1060A000684601F0A7FB00248DF8004002208DF81F
:1060B00001008DF8044001258DF802408DF805504F
:1060C0008DF803408DF80640684601F051FB04A8A6
:1060D00001F046FB8DF810408DF811408DF812400C
:1060E000164C8DF8135004A9204601F023FB144DE3
:1060F00004A9284601F01EFB072301221021204697
:1061000001F086FB042302220521284601F080FBD2
:106110000121204601F0B9FB0121284601F0B5FB21
:106120000121204601F06FFB0121284601F06BFBA5
:1061300005B030BD000002400800440000200140CE
:10614000002101400F4A01280CD002280DD003285D
:106150000ED0042814D10C4800294FF004010DD0B2
:1061600001F0ECBE4FF4807004E04FF4006001E0F9
:106170004FF48050002901461046F1D101F0DCBEF9
:106180007047000000000240001C0240012807D0B8
:10619000022807D0032807D0042807D100F01ABC32
:1061A00000F0DCBB00F0EEBB00F000BC704700006C
:1061B0007CB5684601F0C9FE02208DF80700002575
:1061C0004002124E8DF80650012400908DF80540D3
:1061D0006946304601F0C3FE200300906946304610
:1061E00001F0BDFE8DF807408DF804508DF8064093
:1061F000E50300958DF805406946304601F0AFFE95
:106200002946304601F09AFE7CBD000000040240A1
:1062100070B50D4E04464FF400752946304601F026
:10622000D7FE3CB100280DD129463046BDE870406C
:1062300001F084BE002805D029463046BDE87040F4
:1062400001F07ABE70BD000000080240006870478F
:10625000014801F017BB000000200140014801F097
:1062600011BB00000021014010B50121034801F0DD
:10627000A8FE002800D0012010BD00000000024050
:1062800010B54FF48051044801F09BFE08B1002086
:1062900010BD012010BD00000004024010B54FF4F5
:1062A0000051044801F08DFE08B1002010BD01200E
:1062B00010BD00000004024010B50221034801F0A7
:1062C00080FE08B1002010BD012010BD000002407A
:1062D00010B52021034801F074FE002800D00120F1
:1062E00010BD00000004024010B54FF48061044866
:1062F00001F067FE08B1002010BD012010BD0000B4
:10630000000402407CB5684601F01FFE01248DF8B0
:10631000074000208DF8060060030D4D00908DF8B9
:1063200005406946284601F01AFE0220094E0090F9
:106330006946304601F013FE69463046009401F08C
:106340000EFE202000906946284601F008FE7CBD24
:1063500000040240000002402DE9FC47684601F0BD
:10636000F4FD01218DF8071000208DF804008DF850
:1063700006100C02DFF874A08DF805000094694641
:10638000504601F0ECFDE50069465046009501F0ED
:10639000E6FD260169465046009601F0E0FD042026
:1063A000DFF84C8000906946404601F0D8FDDFF8E8
:1063B0004490670069464846009701F0D0FD394691
:1063C000484601F0B9FD2146504601F0B5FD294689
:1063D000504601F0B1FD3146504601F0ADFD0421BB
:1063E000404601F0A9FDBDE8FC8700000000024026
:1063F000001C0240000802402DE9FC41684601F003
:10640000A4FD01208DF8070000218DF804108DF8FF
:1064100006008403DFF86C808DF80500009469465F
:10642000404601F09CFD184FA5116946384600957D
:1064300001F095FD802000906946384601F08FFDFF
:10644000402669463846009601F089FD00960F4EB9
:106450006946304601F083FD2146404601F06CFD5F
:106460004021384601F068FD2946384601F066FDB6
:106470008021384601F062FD4021304601F05EFD8A
:10648000BDE8FC8100040240000802400000024018
:106490002DE9F0410E460746154601211A4801F044
:1064A0000DFB012002F006F9012001F043FA002063
:1064B00001F040FA0121042001F044FA134C204677
:1064C00001F0D6FA0028FAD0022001F0C1FA01202A
:1064D00001F0B6FA01F072FC01F0EAFCFF217F2026
:1064E00001F0C0FB002001F0EBFB0523012219465F
:1064F000172001F07BFB2A4631463846BDE8F041C3
:10650000002301F099BC00001C0040000100740051
:1065100010B5064C072301221021204601F078F91E
:106520002046BDE81040012101F0AFB90020014034
:1065300010B5064C042302220521204601F068F91B
:106540002046BDE81040012101F09FB90021014023
:1065500010B501F0FBFA0121374801F0AFFA3748D6
:10656000016921F00701491C01613548016821F0EA
:106570000301491C01600121084601F0E3F900BF55
:1065800001F088FA0028FBD00323022260210120B9
:1065900001F0C0FA0121022001F0D4F9192001F024
:1065A00067FA0128FAD1002001F09EF9002001F0DD
:1065B000ABF9002001F0A0F9012001F0ADF90220B3
:1065C00001F0F0FA01F00AFB0228FBD1002001F0F3
:1065D000A3F902F0FDFA01214FF4401001F06EFA28
:1065E0000121184801F06AFA16480121401C01F007
:1065F00065FA14480121801D01F060FA012112485A
:1066000001F05CFA042002F031FB10484FF47A717B
:106610000068B0FBF1F0401EB0F1807F0AD24FF06D
:10662000E02148610A4AF02082F8140D00208861B8
:106630000720086110BD00001C00400000700040F1
:10664000603C0240010030000E00440000000020C9
:106650000FE000E010B5064C0021204602F0C7FC18
:106660002046BDE810400022024902F015BD00009E
:106670000010014005000C001CB50121234801F069
:106680001DFA684601F061FC01208DF8070000202A
:106690008DF8040002218DF8061009021C4C0091AF
:1066A0008DF805006946204601F059FC2015009040
:1066B0006946204601F053FC07220921204601F0DB
:1066C0008EFC07220A21204601F089FC0022114697
:1066D000252001F08FFD0F4C002301224FF4E13102
:1066E000204602F097FC0121204602F034FD0121F2
:1066F000204602F026FD01220749204602F0CCFC8C
:106700000121204602F073FC1CBD0000040044007F
:10671000000002400010014005000C001CB50121E2
:10672000234801F0CBF9684601F00FFC01208DF8F9
:10673000070000208DF8040002218DF806100421C6
:106740001C4C00918DF805006946204601F007FCBD
:10675000082000906946204601F001FC0722022132
:10676000204601F03CFC07220321204601F037FCC3
:1067700000221146262001F03DFD0F4C002301228E
:106780004FF4E131204602F045FC0121204602F0A1
:10679000E2FC0121204602F0D4FC012207492046F8
:1067A00002F07AFC0121204602F021FC1CBD000011
:1067B00011004000000002400044004005000C00B1
:1067C00010B5064C0021204602F011FC2046BDE821
:1067D00010400022024902F05FBC00000048004067
:1067E00005000C001CB50121254801F067F9684639
:1067F00001F0ABFB01208DF8070000208DF80400AC
:1068000002218DF8061020211E4C00918DF8050004
:106810006946204601F0A3FB1020009069462046FF
:1068200001F09DFB07220521204601F0D8FB07223D
:106830000421204601F0D3FB00221146272001F05D
:10684000D9FC114C002301224FF4E131204602F023
:10685000E1FB0121204602F07EFC0121204602F0EE
:1068600070FC0121204602F071FC012207492046FC
:1068700002F012FC0121204602F0B9FB1CBD000011
:1068800012004000000802400048004005000C00D3
:1068900010B5064C0021204602F0A9FB2046BDE8B9
:1068A00010400022024902F0F7BB0000004C0040FB
:1068B00005000C001CB50121234801F0FFF86846D3
:1068C00001F043FB01208DF8070000208DF8040043
:1068D00002218DF8061049021C4C00918DF805002C
:1068E0006946204601F03BFBE014009069462046D3
:1068F00001F035FB08220A21204601F070FB082236
:106900000B21204601F06BFB00221146342001F0E0
:1069100071FC0F4C002301224FF4E131204602F0BC
:1069200079FB0121204602F016FC0121204602F0ED
:1069300008FC01220749204602F0AEFB0121204657
:1069400002F055FB1CBD000013004000000802408F
:10695000004C004005000C00FEE7000070B5084D3B
:106960004FF480742146284601F032FB08B1002222
:1069700000E0012221462846BDE8704001F0E0BA5F
:106980000000024070B5084D4FF4006421462846CF
:1069900001F01EFB08B1002200E00122214628463A
:1069A000BDE8704001F0CCBA0000024070B5084D5F
:1069B0004FF480542146284601F00AFB08B100221A
:1069C00000E0012221462846BDE8704001F0B8BA37
:1069D0000000024010B5074C0421204601F0F8FAEF
:1069E00008B1002200E001222046BDE81040042149
:1069F00001F0A6BA001C0240024904200870FFF70B
:106A0000BDB80000D4000020024901200870FFF743
:106A1000D5B80000D4000020024903200870FFF719
:106A2000EDB80000D4000020024902200870FFF7F2
:106A300005B90000D4000020FEF7D0FD0A2002F0C6
:106A40004DFCF9E710B54FF48041480301F022FCFA
:106A5000FFF77EFD032001F00BFCFFF753FCFFF76F
:106A60007BFCFFF7C9FCFFF7A3FBFFF757FEFFF71F
:106A7000B9FE002211460120FFF70AFDBDE81040D3
:106A800000F04CB8FEE770474FF47A74FEF7D0FD83
:106A9000204602F023FCF9E7002228B907E000BFF6
:106AA00010F8013B1A4492B2491EC9B2F8D21046FE
:106AB0007047FEF76FFE642002F010FCF9E700005B
:106AC0002DE9F0410746101D8846C5B216466421DF
:106AD0000D48FDF7B6FC0C4C7E20324620706570E8
:106AE000A7704146E01CFDF793FCA81EC1B2601CD4
:106AF000FFF7D2FF611901F8010C29462046BDE8D5
:106B0000F04102F039BA0000A01600204FF47A7468
:106B1000FEF798FE204602F0E1FBF9E710B501F020
:106B2000ABFA0649486048684FF0FF3101EBD010DE
:106B300081B2BDE810407F2001F094B80800002029
:106B400010B5102080F31188BFF34F8FBFF36F8F04
:106B500002F0FAFC18B104494FF0805008600020A0
:106B600080F3118810BD000004ED00E0054910B568
:106B700001204871C103044801F0E0F9BDE810406C
:106B8000FFF730BE2A000020000402404FF47A7460
:106B9000FFF774F8204602F0A1FBF9E70249002054
:106BA0004871FFF70DBE00002A000020164801685A
:106BB00041F4700101601548016841F00101016074
:106BC00001688907FCD5114908310A6822F00302DF
:106BD0000A600A6812F00C0FFBD102680C4B1A40D5
:106BE000026000200860094A0A49121D1160074925
:106BF000A031086005494FF41F000C3108600249BC
:106C0000500680390860704788ED00E00038024087
:106C1000FFFFF2FE0230030070B5124E1021304625
:106C200002F0FEF800281CD00621304602F02AF8B7
:106C30000D4CA16804F1100505EB4102491CA1604F
:106C400010801021304602F03CF8A068022808D3DA
:106C500028884FF6FF726988101A401C084480B2D9
:106C6000E06070BD000C004008000020F0B51A4A3A
:106C70008BB090422DD891422BD850B349B36422A7
:106C8000B1FBF2F4B1FBF2F302FB1313B4FBF2F528
:106C900042F21076B1FBF6F102FB1544B0FBF2F7BD
:106CA000CDB2B0FBF2F102FB1101B7FBF2FCB0FB7D
:106CB000F6F002FB1C72C0B203950091CDE90120F1
:106CC0006433641ECDE904436846FDF74DFB0BB009
:106CD000F0BD0020FBE700003F420F0038B50F4C2D
:106CE0000821204602F0E7F9012803D108212046B7
:106CF00002F082F92021204602F0DDF900280CD0B4
:106D00002021204602F078F9204602F069F98DF83A
:106D100000006946024801F007FA38BD004C004007
:106D20001C01002038B50F4C0821204602F0C3F9A1
:106D3000012803D10821204602F05EF920212046D7
:106D400002F0B9F900280CD02021204602F054F9B5
:106D5000204602F045F98DF800006946024801F02E
:106D6000E3F938BD00100140E000002038B50F4CB9
:106D70000821204602F09FF9012803D1082120466E
:106D800002F03AF92021204602F095F900280CD0B3
:106D90002021204602F030F9204602F021F98DF83A
:106DA00000006946024801F0BFF938BD00440040C8
:106DB000F400002038B50F4C0821204602F07BF982
:106DC000012803D10821204602F016F9202120468F
:106DD00002F071F900280CD02021204602F00CF9B5
:106DE000204602F0FDF88DF800006946024801F0E7
:106DF0009BF938BD0048004008010020FEE74FF431
:106E00007A74FFF74BF8204602F068FAF9E70000C1
:106E10000FB4054B10B503A9044A029800F0EEF830
:106E200010BC5DF814FB0000157F00080400002072
:106E30000FB4084B10B504A902AA039800F0DEF8BD
:106E4000044602A9002000F070FC204610BC5DF84A
:106E500014FB00002B77000802E008C8121F08C1CD
:106E6000002AFAD170477047002001E001C1121FCB
:106E7000002AFBD1704700002DE9FF5F82B000219E
:106E8000DDE90430020DDDF840B0034318D044F6CC
:106E90001050A2F2FF3242431514119801281FD05E
:106EA000A5EB0B00401C5FEA000A4FF000064E4FB6
:106EB000DFF83891B046504615D5CAF1000413E00A
:106EC000119801244AA3012801D16FEA0B0102980D
:106ED000119AC0E90031C0E9024206B0BDE8F09F56
:106EE000CBF10000DFE704460021404A491842EB9D
:106EF0000450CDE9001012E0E00707D032463B46CF
:106F000040464946FDF756FB8046894632463B4699
:106F100010461946FDF74EFB06460F466410002C3E
:106F2000EAD1DDE90401DDE90023BAF1000F06DA58
:106F3000FDF740FB42464B46FDF73CFB05E0FDF705
:106F4000ABFB42464B46FDF7A7FB04460E4600222C
:106F5000284BFDF761FC03D84FF0FF30014607E0F6
:106F60000022254B20463146FDF77DFAFDF7AAFDAC
:106F7000102409E0002C0ADB0A220023FDF7C2F9E5
:106F8000039B30321A55641E50EA0102F2D1641C90
:106F9000039AC4F111031444119A012A03D0012267
:106FA00008430DD10AE0084304D000204FF0110B34
:106FB000119072E7A3EB0B056D1E0DE05B4504DD40
:106FC0004FF0000205F1010504E003DA4FF0000282
:106FD000A5F10105002AECD002981199C0E902310F
:106FE000C0E9004579E70000000014400000F03FD0
:106FF000300000000000F0430000E03F2DE9FF4FAB
:1070000095B09B468946064600250FE2252877D194
:1070100000242746F84A0121059400E0044316F8AD
:10702000013F203B01FA03F01042F7D130782A28C3
:1070300011D06FF02F033078A0F13002092A16D852
:10704000059A44F0020402EB820203EB4202104470
:10705000761C0590EFE759F8042B0592002A03DA15
:10706000504244F40054059044F00204761C3078F9
:107070002E2816D116F8010F44F004042A280DD04A
:107080006FF02F023078A0F13003092B09D807EBFD
:10709000870302EB4303C718761CF3E759F8047B18
:1070A000761C30786C280FD006DC4C2817D0682866
:1070B0000DD06A2814D104E0742810D07A280FD19A
:1070C0000DE044F400140AE044F4801401E044F4B8
:1070D00040147278824202D104F58014761C761C2A
:1070E000307866280BD013DC582877D009DC0028CC
:1070F00075D04528F6D04628F4D047281AD19DE10E
:1071000018E0632835D0642879D0652812D195E13C
:10711000702873D008DC6728F1D069286FD06E28FA
:107120000DD06F2806D1B5E073282CD0752875D006
:10713000782874D05A46179990476D1C75E1C4F3AE
:107140000250022809D003280DD0D9F800100428D5
:107150000DD00D6009F1040967E1D9F80010EA17B4
:10716000C1E90052F6E7D9F800100D80F2E70D7082
:10717000F0E719F8041B8DF8001000208DF80100CD
:10718000EA46012003E059F804AB4FF0FF306107F5
:107190004FF0000102D40DE008F101018846B94228
:1071A0000FDA8045F8DB1AF808100029F4D108E05E
:1071B00008F1010188468142FADB1AF8081000291B
:1071C000F6D105985B46A0EB080721463846179A8A
:1071D00000F094FA284400EB080507E04DE029E1AF
:1071E0000DE01AF8010B5A4617999047B8F10108BB
:1071F000F7D25B4621463846179A13E142E00A224D
:107200000092C4F302524FF0000A022A08D059F843
:1072100004CB032A4FEAEC710AD00DE029E02AE002
:1072200009F1070121F00702F2E802C1914609E0E5
:107230000FFA8CFC4FEAEC71042A03D14FFA8CFC54
:107240004FEAEC71002907DA0A460021DCF1000C54
:1072500061EB02012D2202E0220504D52B228DF8DC
:107260000420012203E0E20701D02022F7E7904644
:1072700059E00A2102E010220DE010214FF0000A2F
:1072800000910BE010224FF0000A44F0040408279C
:10729000009203E008224FF0000A0092C4F3025269
:1072A000022A05D059F804CB0021032A08D009E0AE
:1072B00009F1070121F00702F2E802C1914605E059
:1072C0001FFA8CFC042A01D10CF0FF0C4FF00008CF
:1072D000220728D5702806D0009B83F0100353EABC
:1072E0000A0305D00EE040228DF80420012208E0B8
:1072F0005CEA010206D030228DF804208DF80500EA
:1073000002229046009B83F0080353EA0A030AD145
:107310005CEA010201D1620705D530228DF8042014
:107320004FF001087F1E582804D034A003900EA807
:1073300002900DE036A0F9E753466046009AFCF74C
:10734000E1FF84460398825C0298401E029002701E
:107350005CEA0100F0D1029806A9081A00F1200A9F
:10736000600702D524F4803400E00127574502DD90
:10737000A7EB0A0000E0002000EB0A01009005984E
:107380004144401A0590E00306D45B462146179A13
:10739000059800F0B3F90544002706E001A85A4615
:1073A000C05D179990476D1C7F1C4745F6DBE003D5
:1073B0000CD55B462146179A059800F09FF90544C5
:1073C00004E030205A46179990476D1C0099481EDA
:1073D00000900029F5DC08E0029802995A460078EE
:1073E000491C0291179990476D1CBAF10001AAF14E
:1073F000010AF1DC65E10000092801003031323377
:1074000034353637383961626364656600000000E0
:1074100030313233343536373839414243444546CA
:107420000000000000F058F90544761C3078002870
:107430007FF4ECAD19B02846BDE8F08F620700D4A8
:10744000062709F1070222F0070CFCE80223E146B7
:1074500003F000485FEA080C02D00FF2702C0DE038
:107460005FEA045C02D50FF2682C07E05FEAC47C97
:1074700002D00FF2602C01E0AFF2700C4FF0FF3839
:1074800023F00043CDF850C065280CD006DC452819
:1074900009D046281DD047283DD13DE0662818D0A8
:1074A00067287ED138E00021112F01DB112000E098
:1074B000781CCDE9000106A90EA8FFF7DDFCDDE987
:1074C0000F010E9A03910021009207F1010A049125
:1074D0004DE04FF000400097CDE9011006A90EA83D
:1074E000FFF7CAFCDDE90F0203920E9B11990022FF
:1074F000DDF80CA00093049211B9791C00EB010A8D
:10750000B7EB0A0004D4C0F1FF3007F1010A049080
:10751000AAEB0700019044E0012F00DA01270021C7
:10752000112F01DD112000E03846CDE9000106A948
:107530000EA8FFF7A1FCDDE90F010E9A03910021CF
:1075400004910092BA4621070CD40399514500DA00
:107550008A46BAF1010F05DD009AAAF10101515CDA
:10756000302908D0B84202DA10F1040F06DA0121FE
:10757000CDE9011015E0AAF10101E9E7002805DCD9
:10758000049901440491AAEB000102E0411C514519
:1075900000DD8A460499401A401C01904FF00040DB
:1075A0000290200704D40198504501DBCDF80480F7
:1075B00000208DF84F0002980DF14F07B0F1004FF9
:1075C00025D02B200E9002984FF0020800280CDAEC
:1075D000404202902D200E9007E00A210298FDF70C
:1075E0004FF93031029007F8011DB8F10001A8F100
:1075F0000108F2DC02980028EFD1791E0E9808707D
:10760000307800F0200040F0450007F8020D12A885
:10761000C01B00F107081498007800B1012000EBAE
:107620000A01019801EBE07105984144401A401E9F
:107630000590E00306D45B462146179A059800F0B2
:107640005DF805441498007818B15A461799904788
:107650006D1CE00324D55B462146179A059800F07F
:107660004DF805441CE00498002807DBDDE9030120
:10767000884203DD0098405C179901E0179930209B
:107680005A469047049805F10105401C0490019862
:10769000401E019004D12E205A46179990476D1C28
:1076A000BAF10001AAF1010ADDDC05E017F8010BCF
:1076B0005A46179990476D1CB8F10001A8F10108CE
:1076C000F4DC5B462146179A0598ABE62D000000D6
:1076D0002B000000200000002DE9F04104460025A9
:1076E0001E461746880404D405E039462020B047DA
:1076F0006D1C641EF9D52846BDE8F0812DE9F041E6
:10770000044600251E469046C80301D5302700E0F8
:107710002027880404D505E041463846B0476D1C53
:10772000641EF9D52846BDE8F0810A68531C0B6039
:10773000107070470B78426863F3082242604B7800
:10774000826863F3410282608B78826863F3CB22A4
:107750008260C978C26A491E61F31752C2627047DB
:1077600000210170417081700121C17070470000DB
:107770001F490378D1F8042363F30402C1F80423FA
:107780004378D1F8042363F31342C1F804238278C9
:107790005207D1F8042302D542F0805201E022F0D2
:1077A0008052C1F804238278D1F8043362F38F3316
:1077B000C1F80433C378D1F8042363F34D32C1F820
:1077C00004230379D1F8042363F30B22C1F80423C3
:1077D0004379D1F8042363F3D752C1F804238279A3
:1077E000D1F8040362F39650C1F804037047000017
:1077F000002001400021017041708170C170017151
:10780000417181717047826861F300028260704744
:1078100070B507240A2908D2056901EB4106B44076
:10782000A543B3402B43036109E0C568A1F10A06F3
:1078300006EB4606B440A543B3402B43C3601F2369
:107840000D2A09D3C46A0D3A02EB820293409C438D
:1078500091402143C16270BD072A09D3046BD21F36
:1078600002EB820293409C4391402143016370BD2F
:10787000446B521E02EB820293409C439140214391
:10788000416370BDC06C80B27047826861F39E72C4
:1078900082607047FDF740F90A2001F01FFDF9E70B
:1078A00070B50024B3EB410F18D2012070BD055D07
:1078B0002B0905F00F05092B01D9572600E03026CA
:1078C0003344092D01D9572600E0302602F8143040
:1078D00002EB44033544641C5D70A4B28C42E6D3D1
:1078E000002002F8110070BD02490A6860F3071217
:1078F0000A6070470838024002490A6860F38C2227
:107900000A6070470838024002490A6860F34F3243
:107910000A6070470838024005490128086803D00A
:1079200020F030000860704740F03000FAE70000B7
:10793000A438024002490A6860F310420A607047A6
:10794000703802400F4A052810D2DFE800F0030724
:107950000B101300106861F3000006E0106861F37B
:10796000104002E0106861F318601060704705482D
:10797000703001E003487430026861F30002026075
:1079800070470000003802402DE9F041044600F045
:1079900025F9264A010005D0254801290DD00229E4
:1079A00009D128E023480168490404D50068C004CF
:1079B00001D5214801E0226000E020601D4998398E
:1079C00008681E4AC0F30310125C2068D040606053
:1079D0000A681A4BC2F38222103B9A5C20FA02F228
:1079E000E260096803F10802C1F34231515CC8400A
:1079F000A060BDE8F0810F499C390B68C3F3805645
:107A00000B680D68C3F38813096805F00F050B4F69
:107A1000C1F30241163F795C06B9104615FB01F22D
:107A2000A0FB03010023FCF76DFCC6E700127A00FF
:107A300000366E01A0380240006CDC02049700089A
:107A400002490A6860F3CF320A607047703802401A
:107A5000064903090A6863F314420A60034968315E
:107A60000A6860F309220A60704700000838024083
:107A70000146002001F01F0301229A40044B03EB52
:107A80001141D1F800188A4300D10120704700004D
:107A90000030024030B500244FF4405500E0641C33
:107AA0001120FFF7E5FF012801D0AC42F7D31120E8
:107AB000FFF7DEFF012800D0002030BD10B5094CD3
:107AC00000F01F0301229A4004EB10400129D0F876
:107AD000001804D031EA0201C0F8001810BD1143AB
:107AE000FAE700000030024010B5094C00F01F0317
:107AF00001229A4004EB10400129D0F8001804D06C
:107B000031EA0201C0F8001810BD1143FAE7000085
:107B10000030024030B520B90B4C256845F4805543
:107B20002560094C9C3C256860F3965525602068CB
:107B300061F38E102060206862F3030020602068EB
:107B400063F31240206030BDA03802401248016843
:107B500041F00101016001688907FCD50E49083137
:107B60000A6822F003020A600A6812F00C0FFBD1C7
:107B700002680A4B1A40026000200860064A084961
:107B8000121D11600449A031086003494FF41F0021
:107B90000C3108607047000000380240FFFFF2FE21
:107BA000023003000C490A6860F301020A6000BF5A
:107BB00000BF00BF00BF00BF00BF00BF00BF00BFCD
:107BC00000BF00BF00BF00BF00BF00BF00BF00BFBD
:107BD00000BF00BF00BF704708380240024800687D
:107BE000C0F38100704700000838024078B50E46A7
:107BF00000211C461546009100F0D4F8009960F36E
:107C000017410091304600F0CDF8009960F30C2147
:107C10000091284600F0C6F8009960F30501009134
:107C2000009864F34F30009000F058F900F064F8C9
:107C3000012801D0002078BD009809490860084952
:107C40006FF0800008310860081F0068800601D4CA
:107C500000F02EF90249FF2020310860012078BD94
:107C60000428004010B50B46044600F037F900F038
:107C700043F8012801D0002010BD094A106864F3C0
:107C800016401060106863F30E001060111F6FF053
:107C9000800008600249FF2014310860012010BDF7
:107CA0001028004040F08000C14304480268C2F33D
:107CB000C01241EAC2110160704700000C28004068
:107CC00000B5034600F00AF900F016F8012801D0CB
:107CD000002000BD0748016863F386110160054973
:107CE0006FF08000091D08600249FF201C31086008
:107CF000012000BD082800400B494FF4D8000A6855
:107D0000520608D44FF0FF320A6001E028B1401E4D
:107D10000A685206FAD5012070470349FF2018313E
:107D200008600020704700000C28004008B50021C2
:107D300000911B49B0F5006F26D009DCB0F5807FBB
:107D40000DD0B0F5007F0ED0B0F5806F0FD117E0E9
:107D5000B0F5005F1CD0B0F5804F08D118E009687D
:107D6000C1F3003102E00968C1F3403100910C49D0
:107D7000091D0968014211D0009878B1012008BDA1
:107D80000968C1F38031F1E70968C1F3C031EDE75B
:107D9000034938310968C1F38001E7E7002008BDD5
:107DA000082800400A21B0FBF1F2B0FBF1F301FB1F
:107DB0001301100741EA10607047000010B500F091
:107DC0008DF81B4C00232360FFF796FF012801D09C
:107DD000002010BD164808380360154942F2011012
:107DE000091F086023601249124808310860091D04
:107DF0004FF6FF700860081D0360001D0360001D42
:107E000003600B4824300360094834300360001DD0
:107E10000360001D0360001D03600548001D036032
:107E200000F046F80249FF201C310860012010BD17
:107E300008280040FF007F0078B50E4600211C4650
:107E400015460091FFF7AEFF009960F315410091D0
:107E50003046FFF7A7FF009960F30E2100912846F6
:107E6000FFF7A0FF009960F306010091009864F30A
:107E70009650009000F032F8FFF73EFF012801D045
:107E8000002078BD00980949086008496FF080001B
:107E90000C310860081F0068800601D400F008F863
:107EA0000249FF2024310860012078BD00280040ED
:107EB00009494FF4D8000A686FF0A003C2F3C0125A
:107EC00043EAC2120A6002E0002804D0401E0A6899
:107ED0009206F9D5012070470C2800400248CA21BB
:107EE0000160532101607047242800400149086067
:107EF00070470000143C0140054A0146002012680A
:107F00000A40034914390968114200D00120704722
:107F1000143C014070B5074D044681B2284601F07B
:107F200062F84021284601F06FF80028F9D0204679
:107F300070BD000000480040816270478161704759
:107F40000AB181617047816270474FF6FF7101602D
:107F500000218171017141710121C1717047F0B53A
:107F60000B8800229BB229E0DC0724D0066855006C
:107F70000324AC40A64306608E790768AE403E43BA
:107F80000660466801279740BE43466046680F7901
:107F900097403E4346608668A6438660CE798768F0
:107FA000AE403E438660C668A643C6604C79AC408E
:107FB000C5682C43C4605B08521C92B2002BD3D11D
:107FC000F0BD024600201269914300D101207047A4
:107FD0000246002052690A4200D0012070474B0738
:107FE00010B5DB0E9A40CC084FF00F0101FA03F1F7
:107FF00006D0436A8B434362416A1143416210BD1C
:10800000036A8B430362016A1143016210BD0000E1
:1080100010B586B014216846FCF713FAFDF7A8FDE9
:108020000446FDF753FA134A014610728DF80040DA
:10803000200A8DF80100200C8DF80200200E8DF82A
:10804000030050688DF80400020A8DF80520020C28
:108050008DF80620000E8DF807008DF808102920F5
:108060008DF80900142269460320FEF729FD06B0A9
:1080700010BD00000417002030B585B0012126484E
:10808000FFF71CFD254D0121284600F0D3FE0021FD
:10809000284600F010FE0121284600F00EFE0620C2
:1080A0008DF8000001208DF8020000248DF80140B9
:1080B0008DF8034022466946284600F01EFE032242
:1080C0000621284600F000FE00221146322000F072
:1080D00091F80121284600F0E9FD104814300460B1
:1080E00001221021284600F090FE0D4CA0680228C5
:1080F000FCD1284600F0B0FE01A8FFF745FC094876
:10810000006810F4E05F049800D04000E16805B01A
:10811000B0FBF1F0C00030BD03004000000C004097
:10812000080000200838024070B50D46044600F0F3
:108130003AF810B1204600F013F820696168E2684F
:1081400001FB020062682946FCF762F9E0682168D9
:10815000401CB0FBF1F201FB1200E060012070BD99
:10816000C1688268914201D100207047816802682D
:10817000491CB1FBF2F302FB13118160012070472F
:108180002DE9F04116460D4604461F467143184638
:10819000FCF757F9256066600020A060E060276169
:1081A0000120BDE8F081C1680268491CB1FBF2F30F
:1081B00002FB13118068814201D101207047002029
:1081C0007047000010B5FEF73DFCFDF724FFFDF7FA
:1081D000CDFD02A0FEF71CFE002010BD7379737464
:1081E000656D207374617274696E672E2E2E0D0A90
:1081F0000000000070B51D4B1B68C3F30224C4F1DE
:108200000706042E00D90426231D072B01D20024C3
:1082100000E0E41E012303FA06F56D1E0D40A540A3
:1082200003FA04F1491E11400D43002807DB00BF8B
:1082300000F1E0214FEA051281F8002407E000F088
:108240000F0202F1E0224FEA051182F8141D0BDB48
:1082500000F01F014FEA50104FEA800000F1E020CB
:1082600003FA01F3C0F8003170BD00000CED00E02E
:10827000064900F0070208684FF6FF03184040EA7D
:108280000220034A10430860704700000CED00E034
:108290000000FA05024A114001430248016070479C
:1082A00080FFFF1F08ED00E02DE9F041184C0F465C
:1082B0000546E6682068001D00F052FF38B92068C6
:1082C00090F82C1001208840216981432161681CAD
:1082D00007D137B12168BDE8F0410E48091D00F013
:1082E00078BF20683544B5424560216805D2E06B0F
:1082F000BDE8F041091D00F054BFA06B091D00F05E
:1083000050FFA06A854200D2A562BDE8F08100005E
:1083100068000020301800202DE9F041054600F0EB
:1083200065FF2E4CA068401CA06020682C4F10B147
:10833000606940B32DE02560A068012829D100269E
:1083400006EB860007EB800000F01DFF761C052E73
:10835000F6D32348643000F016FF2148783000F04F
:1083600012FF1F488C3000F00EFF1D48A03000F0B7
:108370000AFF1B48B43000F006FF19486430A063C0
:108380001430E06305E02068E96AC06A884200D8DA
:108390002560606A401C6062E96A012022698840A9
:1083A0001043206101EB810007EB8000291D00F0E4
:1083B00010FF00F03BFF606900280CD02068E96ADC
:1083C000C06A884207D207494FF080500860BFF367
:1083D0004F8FBFF36F8FBDE8F08100006800002071
:1083E0007C17002004ED00E010B50446006B00F09F
:1083F00031FF2046BDE8104000F02CBF10484FF47C
:108400000051420706D0C01D0D4920F00700411A57
:10841000C1F500510B4A00230144C2E900030839A9
:10842000183A21F0070111604B600B600B1AC0E98C
:10843000001393604FF0004053605061704700009C
:1084400044180020C0000020144E154CA6F1A007CF
:108450004FF08058DFF84C9012E000BF00F0C6FEED
:10846000F068C568281D00F07BFEA068401EA06073
:108470006068401E606000F0D9FE2846FFF7B4FF38
:1084800060680028EAD138680128F9D9C9F8008065
:10849000BFF34F8FBFF36F8FF2E700001C1800206F
:1084A0006800002004ED00E02DE9F0479A46DDE980
:1084B000098481466FF00303206B03EB82021044B2
:1084C000089E20F00707780707D0102080F3118856
:1084D000BFF34F8FBFF36F8FFEE7002561B1002020
:1084E00023180A5C83F834200A5C12B1401C10285F
:1084F000F6D384F8435001E084F83450052E00D3BD
:108500000426201DE66200F049FE04F1180000F088
:1085100045FE2461C6F105006462A061656484F8CB
:10852000485052464946384600F0CCF82060B8F131
:10853000000F01D0C8F80040BDE8F08730B5114900
:1085400000E011460A688242FBD34B685C18844203
:1085500003D1406818444860084643681C18944298
:1085600009D1084C183C2468A24209D052681A4428
:1085700042600A6812680260814200D0086030BD23
:108580000460F9E7C00000200548816B096821B14B
:10859000816BC9680968816270474FF0FF31FAE763
:1085A0006800002008484068401C4FF0100080F32D
:1085B000118804D0BFF34F8FBFF36F8FFEE7BFF377
:1085C0004F8FBFF36F8FFEE7C80000202DE9F04109
:1085D0000546002700F0DCFE354E306808B9FFF78D
:1085E0000DFF7069054254D1F5B305F10804AC42A2
:1085F0004FD9600711D004F00700C0F108002044F3
:10860000A04246D90446400707D0102080F31188C5
:10861000BFF34F8FBFF36F8FFEE72CB370688442B8
:1086200037D82348183001460D6801E028460D462A
:108630006968A14202D229680029F7D131688D42C8
:1086400027D007682968016068680837011B10296E
:108650000FD92819420708D0102080F31188BFF3E2
:108660004F8FBFF36F8FFEE713E041606C60FFF741
:1086700065FF69687068401A7060B268904200D205
:10868000B060706901430020C5E90001F068401C3A
:10869000F06000F0BFFF780707D0102080F311884A
:1086A000BFF34F8FBFF36F8FFEE73846BDE8F08111
:1086B000A800002002490A6860F308220A60704797
:1086C0000070004010B5031F4FF080741C601B1F2A
:1086D00021F001011960191F044B0B6014390A6065
:1086E000091F6FF0020244380A6010BDA58500081A
:1086F0001CB509490120CDE900010023802207A112
:10870000094800F0F5FE012801D0084800E008A063
:10871000BDE81C40FEF77CBB400000206164635F45
:108720007461736B0000000095780008E4990008FC
:108730004144436F6E76657274207461736B207769
:10874000617320637265617465642073756363652A
:10875000737366756C6C792E0D0A00001CB509499F
:108760000120CDE900010023802207A1094800F083
:10877000BFFE012801D0084800E008A0BDE81C4069
:10878000FEF746BB440000206164635F7461736B55
:1087900000000000234D0008809900084261745FCA
:1087A00050657263656E745F66756E6374696F6E33
:1087B000207461736B2077617320637265617465E7
:1087C00064207375636365737366756C6C792E0DC5
:1087D0000A0000001CB509490120CDE90001002371
:1087E000802207A10B4800F083FE012801D00A482F
:1087F00000E00AA0BDE81C40FEF70ABB58000020BC
:10880000426174566F6C446973706C61795F746116
:10881000736B0000334D00085498000850756C6C61
:108820005F53656E644374726C5F66756E637469E2
:108830006F6E207461736B20776173206372656162
:10884000746564207375636365737366756C6C79A6
:108850002E0D0A001CB509490120CDE900010023B5
:10886000802207A10B4800F043FE012801D00A48EE
:1088700000E00AA0BDE81C40FEF7CABA6000002074
:1088800056626174436861674374726C5F746173AC
:108890006B000000FF6D00085498000850756C6C68
:1088A0005F53656E644374726C5F66756E63746962
:1088B0006F6E207461736B207761732063726561E2
:1088C000746564207375636365737366756C6C7926
:1088D0002E0D0A001CB509490120CDE90001002335
:1088E000802207A10C4800F003FE012801D00B48AC
:1088F00000E00BA0BDE81C40FEF78ABA640000202F
:108900004572726F724C6564446973706C61795F13
:108910007461736B00000000076000085498000841
:1089200050756C6C5F53656E644374726C5F6675F2
:108930006E6374696F6E207461736B20776173204E
:1089400063726561746564207375636365737366D0
:10895000756C6C792E0D0A001CB509490120CDE912
:1089600000010023802207A10B4800F0C1FD01286F
:1089700001D00A4800E00AA0BDE81C40FEF748BA52
:10898000480000204D61674B65795F5363616E5FFE
:108990007461736B00000000396A0008B898000821
:1089A0004D61674B65795F5363616E5F66756E639A
:1089B00074696F6E207461736B20776173206372CA
:1089C0006561746564207375636365737366756C44
:1089D0006C792E0D0A0000001CB509490120CDE973
:1089E00000010023802207A10A4800F081FD012830
:1089F00001D0094800E009A0BDE81C40FEF708BA14
:108A0000500000204E6F725F534F535F7461736B61
:108A100000000000896A0008F49700084E6F725F3A
:108A2000534F535F66756E6374696F6E2074617324
:108A30006B20776173206372656174656420737560
:108A4000636365737366756C6C792E0D0A000000A4
:108A50001CB509490120CDE900010023802207A1AE
:108A60000B4800F045FD012801D00A4800E00AA0AB
:108A7000BDE81C40FEF7CCB94C000020506F72746A
:108A80005F496E666F724765745F7461736B000057
:108A9000B36A00081C990008506F72745F496E66D3
:108AA0006F724765745F66756E6374696F6E20746C
:108AB00061736B20776173206372656174656420F4
:108AC0007375636365737366756C6C792E0D0A003C
:108AD0001CB509490120CDE900010023802207A12E
:108AE0000B4800F005FD012801D00A4800E00AA06B
:108AF000BDE81C40FEF78CB95400002050756C6C2A
:108B000053656E644374726C5F7461736B00000034
:108B10000D6B00085498000850756C6C5F53656EBF
:108B2000644374726C5F66756E6374696F6E2074F3
:108B300061736B2077617320637265617465642073
:108B40007375636365737366756C6C792E0D0A00BB
:108B50001CB509490120CDE900010023802207A1AD
:108B60000B4800F0C5FC012801D00A4800E00AA02B
:108B7000BDE81C40FEF74CB95C00002053797353EC
:108B8000746174654374726C5F7461736B00000090
:108B90008D6B00085498000850756C6C5F53656EBF
:108BA000644374726C5F66756E6374696F6E207473
:108BB00061736B20776173206372656174656420F3
:108BC0007375636365737366756C6C792E0D0A003B
:108BD0002DE9F041FFF702F81E491F4C28B11F4A4A
:108BE00001280DD0022809D10CE01D48026852046A
:108BF00004D50068C00401D51A481CE021601BE0C0
:108C0000226019E016489C380368C3F38056036855
:108C10000568C3F38813006805F00F05124FC0F311
:108C20000240385C06B1114615FB00F2A1FB0301BE
:108C30000023FBF767FB20600948983800680A4961
:108C4000C0F30310891D085C2168C1402160BDE8A4
:108C5000F081000000127A000000002000366E0152
:108C6000A0380240006CDC02D89600084FF0E021EA
:108C70000428086903D020F004000861704740F020
:108C80000400FAE702460020082906D2DFE801F0D6
:108C90000405060508050A0C506B7047906B704779
:108CA000D06B7047106C7047506F7047026861F36B
:108CB0000002026070478162704742690A43426164
:108CC0007047C9430161704751B102290CD0042992
:108CD0000FD0062903D1C16962F38B21C1617047AE
:108CE000816962F3830102E0816962F38B21816112
:108CF0007047C16962F38301F0E710B50B780BB3DD
:108D0000022B40D0042B5FD0062B1AD1036A23F428
:108D1000805303624C78036A64F34D3303628C78AA
:108D2000C36964F30923C361CB78C16963F30F316D
:108D3000C161C16962F38B21C161016A41F4805153
:108D4000016210BD036A23F0010303624C78036AD9
:108D500064F3410303624B785C08036A64F3C30362
:108D600003628C78836964F301038361CB78816942
:108D700063F307118161816962F383018161016A93
:108D800041F00101DCE7036A23F0100303624C7831
:108D9000036A64F3451303624B785C08036A64F367
:108DA000C71303628C78836964F309238361CB78EA
:108DB000816963F30F318161816962F38B21816184
:108DC000016A41F01001BBE7036A23F48073036278
:108DD0004C78036A64F3492303624B785C08036AA6
:108DE00064F3CB2303628C78C36964F30103C3612A
:108DF000CB78C16963F30711C161C16962F3830173
:108E0000C161016A41F480719AE7012A05D0002A04
:108E100002D1C2688A43C2607047C2680A43FAE757
:108E20000246002013690B4203D0D2680A4200D0E8
:108E300001207047B0F1804F07D0064A904203D11D
:108E4000026D61F3871202657047026D61F38B2238
:108E5000F9E70000000C0040374910B5884203D103
:108E600001214FF410145DE0B0F1804F05D033497B
:108E7000884205D10121324C54E001214C0551E0DA
:108E80003049884203D12E4C0121641C4AE02E490E
:108E9000884203D12A4C0121A41C43E02B4988427B
:108EA00003D1274C0121E41C3CE02949884203D12D
:108EB000234C0121241D35E02649884202D101219D
:108EC000254C2FE02549884203D1234C01210F3442
:108ED00028E02349884203D11F4C0121103421E0AE
:108EE0002049884203D11C4C012111341AE01E494B
:108EF000884203D1124C0121641D13E01B498842B2
:108F000003D10F4C0121A41D0CE01949884203D163
:108F10000B4C0121E41D05E0164988420BD10E4C93
:108F2000012113342046FEF7DFFD2046BDE8104046
:108F30000021FEF7D9BD10BD000001400004004033
:108F40000100200000080040000C0040001000401C
:108F500000140040000401400100240000400140D2
:108F6000004401400048014000180040001C00403F
:108F700000200040004C01402DE9F0410E4607461C
:108F80000024094D0BE0395D284600F02CF8402103
:108F9000284600F039F80028F9D0641CA4B2B44285
:108FA000F1D3BDE8F0810000004800402DE9F04118
:108FB0000E4607460024094D0BE0395D284600F0B7
:108FC00012F84021284600F01FF80028F9D0641C50
:108FD000A4B2B442F1D3BDE8F0810000004C0040DF
:108FE000406880B27047C1F3080141607047C268B1
:108FF00061F34D32C2607047CA0602D00168406812
:109000007047C943016070470068084000D00120E4
:10901000704700002DE9FF4104461E4615460F46E5
:109020006846FEF7B1FC1A48844202D019488442CF
:1090300001D1029800E003980A2100EB8000400073
:10904000B0FBF7F0B0FBF1F201FB1202B0FBF1F064
:10905000052A00D3401CA16860F30F01A1607DB117
:10906000E068012D20F080500DD0E060E06840F411
:109070008050E060206966F30D302061BDE8FF811B
:10908000E06840F08050E060E06820F48050F0E755
:10909000001001400014014010B501F01F0400EB66
:1090A00011400123A3400168012A02D099430160C5
:1090B00010BD1943FBE7202925D00CDC042931D051
:1090C00004DC012932D0022939D12BE008291ED035
:1090D000102934D122E0402911D080290BD0B1F5DC
:1090E000807F06D0B1F5007F29D14269C2F380228A
:1090F0001FE0026904E0C268C2F3C01219E0C2684E
:10910000C2F3801215E0C268C2F3401211E0C268D7
:1091100092060FD44269D2070CD110E0C268C2F3A4
:10912000001206E0426902F0010202E0C268C2F3E6
:10913000002222B10068084000D0012070470020C2
:109140007047C26861F38202C2607047026961F3CE
:10915000CF3202617047C26861F3C302C2607047D8
:10916000D0E9013201699A60D0E901235A604A6866
:10917000824201D182684A60002202610868401E72
:1091800008600868704700F108014FF0FF32C0E93D
:109190000112C1600161002101607047002101617D
:1091A000704730B50B685A1C02D000F1080202E08B
:1091B000026904E02246546825689D42FAD9536842
:1091C0004B6099608A60516008610168491C0160C8
:1091D00030BD42684A6093688B60936859609160C3
:1091E00008610168491C016070470000102080F38D
:1091F0001188BFF34F8FBFF36F8F0A494868401C37
:10920000486001280CD10848006810F0FF0F07D013
:10921000102080F31188BFF34F8FBFF36F8FFEE7ED
:1092200070470000C800002004ED00E008494868CD
:1092300028B1401E486001D180F31188704710208A
:1092400080F31188BFF34F8FBFF36F8FFEE70000ED
:10925000C800002070B500282AD0164DA0F10804DF
:1092600060686969084207D1102080F31188BFF354
:109270004F8FBFF36F8FFEE722683AB1102080F363
:109280001188BFF34F8FBFF36F8FFEE78843606095
:1092900000F07EF860686968084468602046FFF75F
:1092A0004DF92869401C2861BDE8704000F0B2B952
:1092B00070BD0000A80000204FF0E02000210161F7
:1092C000816105494FF47A720968B1FBF2F1491ED8
:1092D00041610721016170470000002010B50200C4
:1092E00014D00F48406B38B1102080F31188BFF3C1
:1092F0004F8FBFF36F8FFEE700F04AF80021104652
:10930000FEF7D2FF00F086F9002807D105494FF09B
:1093100080500860BFF34F8FBFF36F8F10BD000008
:109320006800002004ED00E07CB515480025CDE97B
:1093300000502B46802213A1144800F0D9F8104C9D
:109340002C3C012802D0401C11D00EE0102080F3EC
:109350001188BFF34F8FBFF36F8F4FF0FF30A062C4
:1093600001206061E56000F049F8206B7CBD1020B1
:1093700080F31188BFF34F8FBFF36F8FFEE70000BC
:109380009400002049444C45000000004984000836
:109390000248416B491C416370470000680000208F
:1093A0001448416B11B10121C16170470021C161B5
:1093B0000169B1FA81F1C1F11F0101EB81020E498E
:1093C00051F822306BB101EB820101F108034A68C8
:1093D00052684A609A4201D152684A60D16801607D
:1093E0007047102080F31188BFF34F8FBFF36F8F4A
:1093F000FEE70000680000207C1700201CB53748FD
:109400000168374A914207D1102080F31188BFF3D9
:109410004F8FBFF36F8FFEE700683149491E8842C6
:1094200007D1102080F31188BFF34F8FBFF36F8FE8
:10943000FEE72C4908780190FF20087008788DF825
:1094400000009DF800009DF8002000F0F000904220
:1094500007D0102080F31188BFF34F8FBFF36F8FB9
:10946000FEE79DF80000204C00F01000207007205F
:10947000A06005E09DF8002052008DF80020401EFD
:109480009DF800201206F5D4A060032807D0102014
:1094900080F31188BFF34F8FBFF36F8FFEE74FF458
:1094A0004070A060019808700C482030016841F4B9
:1094B00070010160016841F070410160FFF7FCFE3E
:1094C00000206060FAF7D0FE0848016841F0404192
:1094D0000160FAF7B5FE00201CBD000000ED00E0C1
:1094E00071C20F4100E400E0C800002034EF00E04A
:1094F0002DE9FF5F8346DDE90E87994616468A46C9
:109500009000FFF763F805001AD04C20FFF75EF8D3
:10951000040012D025630021CDE90241CDE9008786
:109520004B46324651465846FEF7BEFF2046FEF7F0
:10953000F3FE012004B0BDE8F09F2846FFF78AFE45
:109540004FF0FF30F6E700002DE9F0412F4C0026E8
:10955000606B28B1A069401CA0613046BDE8F08175
:10956000E5686D1CE56013D1A06B006838B1102070
:1095700080F31188BFF34F8FBFF36F8FFEE7A06BAF
:10958000E16BA163E063206A401C2062FEF7FCFFF0
:10959000A06ADFF87C80854209D3A06B0068A0B187
:1095A000A06BC068C7687868854211D2A062206845
:1095B000C06A00EB800158F82100012800D901267B
:1095C000E0690028C9D00126C7E74FF0FF30EDE77A
:1095D000381DFFF7C5FDB86A18B107F11800FFF78D
:1095E000BFFDF96A0120226988401043206101EB28
:1095F000810108EB8100391DFFF7EBFDF86A216856
:10960000C96A8842C9D30126C7E700006800002064
:109610007C1700202DE9F0472C4D00242746686B6D
:1096200038B1FFF7E3FD686B401E6863686B40B1BB
:1096300046E0102080F31188BFF34F8FBFF36F8F88
:10964000FEE7A968224E0120D1B3A6F18C0980461D
:109650003068E8B1F068C46804F11800FFF780FDD5
:10966000201DFFF77DFDE06A2A6908FA00F1114329
:10967000296100EB800109EB8100211DFFF7A9FDA5
:10968000E06A2968C96A8842E2D3C5F81C80DFE72E
:109690000CB1FEF779FFAC6944B14646FFF754FFC1
:1096A00000B1EE61641EF9D10020A861E86938B10B
:1096B0000849012738070860BFF34F8FBFF36F8F4A
:1096C000FFF7B4FD3846BDE8F087000068000020D1
:1096D0000818002004ED00E001020408102000003A
:1096E000000000000000010203040607080901024F
:1096F0000408102000000000010203040000000024
:109700000102030400000000000000000102030445
:1097100006070809B40DBE0DC40DCE0DD10DDB0D2D
:10972000E00DE50DEA0DF10DF60DFB0D000E050E39
:109730000A0E0D0E120E130E180E1B0E1E0E220E0A
:10974000230E270E2A0E2B0E2F0E300E340E350E42
:10975000380E3C0E3D0E420E420E460E480E4B0E8B
:109760004F0E510E540E580E5A0E5E0E600E660EBF
:109770006B0E700E750E7A0E820E880E8D0E960E82
:10978000980EA10EA80EAF0EB30EBB0EC20EC70EE2
:10979000D00ED70EDD0EE50EEC0EF50EFC0E050F0D
:1097A0000C0F150F1B0F230F2C0F320F3B0F430F06
:1097B0004C0F560F5B0F660F6A0F730F7C0F820FF3
:1097C0008D0F930F9C0FA50FAC0FB50FBD0FC60FDC
:1097D000D00FD80FDF0FE80FF10FF90F1F1C1F1E5E
:1097E0001F1E1F1F1E1F1E1F1F1D1F1E1F1E1F1F90
:1097F0001E1F1E1F4E6F725F534F535F66756E6361
:1098000074696F6E207461736B20636F756C642074
:109810006E6F742062652063726561746564206197
:10982000732074686572652077617320696E737543
:109830006666696369656E742068656170206D6530
:109840006D6F72792072656D61696E696E672E0D3C
:109850000A00000050756C6C5F53656E644374724F
:109860006C5F66756E6374696F6E207461736B20D4
:10987000636F756C64206E6F74206265206372651F
:109880006174656420617320746865726520776116
:109890007320696E73756666696369656E742068A6
:1098A000656170206D656D6F72792072656D61699B
:1098B0006E696E672E0D0A004D61674B65795F53C7
:1098C00063616E5F66756E6374696F6E2074617339
:1098D0006B20636F756C64206E6F7420626520630B
:1098E00072656174656420617320746865726520B7
:1098F00077617320696E73756666696369656E74F6
:109900002068656170206D656D6F72792072656D7C
:1099100061696E696E672E0D0A000000506F7274E7
:109920005F496E666F724765745F66756E637469D2
:109930006F6E207461736B20636F756C64206E6F43
:1099400074206265206372656174656420617320B0
:1099500074686572652077617320696E73756666D9
:10996000696369656E742068656170206D656D6FEF
:1099700072792072656D61696E696E672E0D0A00DD
:109980004261745F50657263656E745F66756E6385
:1099900074696F6E207461736B20636F756C6420E3
:1099A0006E6F742062652063726561746564206106
:1099B000732074686572652077617320696E7375B2
:1099C0006666696369656E742068656170206D659F
:1099D0006D6F72792072656D61696E696E672E0DAB
:1099E0000A0000004144436F6E7665727420746112
:1099F000736B20636F756C64206E6F7420626520DA
:109A00006372656174656420617320746865726552
:109A10002077617320696E73756666696369656E28
:109A2000742068656170206D656D6F727920726554
:109A30006D61696E696E672E0D0A00005C9A000800
:109A400000000020D4000000586E0008309B000881
:109A5000D4000020743B0000686E000800127A00F9
:109A600000000000000000000000000000000000F6
:109A700000000000000000000000000000000000E6
:109A8000000000006400000000000000630000000F
:109A900000000000000000000000000000000000C6
:109AA00000000000000000000000000000000000B6
:109AB00000000000000000000000000000000000A6
:109AC0000000000000000000000000000000000096
:109AD0000000000000000000000000000000000086
